:1000000000800020BD010000DD050000DD050000CE
:10001000DD050000DD050000DD050000A90500008C
:10002000A9050000A9050000A9050000DD050000E4
:10003000DD050000A9050000DD05000099050000B0
:10004000DD050000DD050000DD050000DD05000028
:10005000DD050000DD050000DD050000DD05000018
:10006000DD050000DD050000DD050000DD05000008
:10007000DD050000DD050000DD050000DD050000F8
:10008000DD050000DD050000DD050000DD050000E8
:10009000DD050000DD050000DD050000DD050000D8
:1000A000B5240000DD050000DD050000DD050000D1
:1000B000DD050000DD050000DD050000DD050000B8
:1000C000DD050000DD050000DD050000DD050000A8
:1000D000DD050000DD050000DD050000DD05000098
:1000E000DD050000DD050000DD050000DD05000088
:1000F000DD050000A10E0000DD0500001D1300005D
:10010000DD050000CD160000DD050000DD05000066
:10011000DD050000DD050000DD050000DD05000057
:10012000DD050000DD050000DD050000DD05000047
:10013000DD050000DD050000DD050000DD05000037
:10014000DD050000DD050000DD050000DD05000027
:100150005129000069290000812900009929000027
:10016000DD05000085190000DD050000DD0500004B
:10017000DD050000DD050000DD050000DD050000F7
:10018000DD050000DD050000DD050000DD050000E7
:10019000DD050000DD050000DD0500003907000079
:1001A0008907000011080000CD0800005109000077
:1001B000DD050000DD050000D1250000544B4CF2A8
:1001C000205210B51A804DF628121A8000BF00BFC9
:1001D00000F008FA4F4B4FF010621A604E4A9A60D6
:1001E0004E4ADA604E4B1A6812F4807204D14D49BF
:1001F0000A604FF4A8521A604B4B1A7802F00802BA
:10020000D2B21AB11A7842F008021A70474B484825
:10021000484C2A221A700023474A02E01959995083
:10022000043399188142F9D3444B454A002101E037
:1002300043F8041B9342FBD34249434800231A5816
:100240005A500433B3F5DE7FF9D1404B404A802148
:1002500003F8011B9342FBD13A4A3E4B1A603E4BD6
:100260000A221A703D4B24221A70A02203F8012C96
:100270003B4A137803F00203DBB2002BF9D0384A73
:10028000137803F01003DBB2002BF9D1344A137852
:1002900003F00C03082BFAD1324B03221A704022D0
:1002A0005A702F4A137803F02003DBB2002BF9D0E9
:1002B0002B4A137803F04003DBB2002BF9D02A4B12
:1002C0002A4A1A6002225A60294B20221A70244AB4
:1002D000137803F00C030C2BFAD1264A264B1A6034
:1002E000264B4BF67F321A60072243F8042C62B685
:1002F00000F0C6FB0B4B1B68DC0702D5204800F062
:100300003FFB02F029FC00F073F902F00DF8FEE764
:100310000E20054030800440823F04000100002B85
:1003200010D0034014D0034002D0074000E0074043
:10033000648DFF1F943900006087FF1F648DFF1FCD
:10034000C891FF1F0082FF1F0000000000E400E0D2
:100350005FE400E008ED00E0005006400140064088
:10036000064006400440064044800440000003115B
:1003700000400640C01005000480044014E000E086
:1003800000DD6850FFFFFFFFFFFFFFFFFFFFFFFFE4
:10039000FFFFFFFFFFFFFFFFFFFFFFFFFFFFFFFF6D
:1003A000FFFFFFFFFFFFFFFFFFFFFFFFFFFFFFFF5D
:1003B000FFFFFFFFFFFFFFFFFFFFFFFFFFFFFFFF4D
:1003C000FFFFFFFFFFFFFFFFFFFFFFFFFFFFFFFF3D
:1003D000FFFFFFFFFFFFFFFFFFFFFFFFFFFFFFFF2D
:1003E000FFFFFFFFFFFFFFFFFFFFFFFFFFFFFFFF1D
:1003F000FFFFFFFFFFFFFFFFFFFFFFFFFFFFFFFF0D
:10040000FFFFFFFFFFFFFFFFFFFFFFFFFEFFFFFFFD
:1004100008B548F66450074BC1F6FF701B1A062B4F
:1004200000D808BD40F20003C0F20003002BF8D052
:100430009847F6E7678DFF1F08B548F6645048F601
:100440006453C1F6FF70C1F6FF731B1A9B1003EBD8
:10045000D373591000D108BD40F20002C0F200026F
:10046000002AF8D09047F6E710B548F66454C1F674
:10047000FF74237873B9FFF7CBFF40F20003C0F29B
:1004800000032BB143F69410C0F20000AFF30080DC
:100490000123237010BD00BF08B540F20003C0F275
:1004A00000034BB143F6941048F66851C0F20000C7
:1004B000C1F6FF71AFF3008048F66450C1F6FF70DB
:1004C00003682BB140F20003C0F2000303B1984768
:1004D000BDE80840FFF7B0BF224B60221A70E1224E
:1004E0005A70214B214A1978214B082901D1012149
:1004F00002E00A2907D13921116013221A601D4B2D
:1005000019605A600BE00C291A4901D1352000E02E
:100510003D20106012221A60174B08601A60174BBA
:1005200017491B78174A03B101230B601360164B60
:10053000164A1978164B012901D880210CE00429AC
:1005400001D8842108E0082901D8852104E0102978
:1005500001D8862100E08721116019600D4B01222E
:100560001A707047004007406487FF1F08B00340BF
:100570000CB0034008B00B400CB00B40818DFF1F46
:1005800020B0034020B00B406587FF1F24B003401C
:1005900024B00B40808DFF1F024B1A6801321A6095
:1005A000704700BF0C8EFF1F38B50B4C25462368E3
:1005B000580301D501F0E6F92B68590501D500F083
:1005C0006FFC2B681A0501D500F0A8FE2368DB0438
:1005D000EDD501F07BF8EAE73480044008B5FFF779
:1005E000E3FFFFFF014B10221A80704700200540F7
:1005F0007047FFFF024A13681818106018467047CA
:100600006887FF1FEFF313839BB9EFF3108098B94E
:10061000EFF3058323B10F2B04D9084A985C01E05E
:100620004FF48070EFF311833BB1984228BF184616
:1006300070474FF0FF30704718467047F0E300E016
:10064000002300E00133C25C002AFBD1184670474A
:1006500010B50023B0FBF2F402FB1400092801D806
:10066000303000E03730C85420460CB10133F1E798
:10067000CA185470224605E0885CCC5C8C54C8547F
:100680000132013B9A42F7DB084610BD084B4FF49C
:1006900000021A604FF080721A604FF000721A6008
:1006A0004FF080621A604FF000621A60704700BF1E
:1006B00008E100E0212830B521D8042A1FD8DFE85E
:1006C00002F00709050B03000B2306E00A2304E0F0
:1006D000082302E00C2300E00923094A02EBC002D0
:1006E000526872B61468074D24F47024146044F004
:1006F000807444EA034345F82010136062B630BDAD
:1007000024360000848DFF1F094B03EBC0035B6898
:1007100072B61A6822F0877222F4803242F0807238
:100720001A60044B002243F8202062B6704700BFD5
:1007300024360000848DFF1F114B10B51C68E004A7
:100740001C6004D50F4BDA680AB1DB689847A10436
:1007500004D50C4B1A690AB11B699847A20604D547
:10076000084B1A6E0AB11B6E9847E30606D5054B77
:10077000D3F8842012B1D3F88430984710BD00BF5D
:10078000A0900440848DFF1F1F4B10B51C68E00330
:100790001C6004D51D4B1A680AB11B689847A10359
:1007A00004D51A4B5A680AB15B689847E20704D52A
:1007B000164B1A6C0AB11B6C9847A30704D5134B50
:1007C0005A6C0AB15B6C9847200704D50F4B9A6CA2
:1007D0000AB19B6C9847610704D50C4BDA6C0AB1DF
:1007E000DB6C9847220304D5084B5A6E0AB15B6E46
:1007F0009847630306D5054BD3F8802012B1D3F890
:100800008030984710BD00BFA0A00440848DFF1F1A
:100810002C4B10B51C6820071C6004D52A4B5A6A63
:100820000AB15B6A9847E10604D5274B9A6A0AB178
:100830009B6A9847620604D5234BDA6A0AB1DB6AE1
:100840009847230604D5204B1A6B0AB11B6B9847B7
:10085000A00604D51C4B5A6B0AB15B6B9847E107A5
:1008600004D5194BDA6B0AB1DB6B9847A20704D5A4
:10087000154B9A6D0AB19B6D9847630704D5124BCF
:10088000DA6D0AB1DB6D9847A00504D50E4BDA6E20
:100890000AB1DB6E9847E10504D50B4B1A6F0AB11C
:1008A0001B6F9847620504D5074B5A6F0AB15B6FFF
:1008B0009847230504D5044B9A6F0AB19B6F98475C
:1008C00010BD00BFA0B00440848DFF1F1E4B10B5AB
:1008D0001C68E0071C6004D51C4B9A680AB19B6831
:1008E0009847210604D5194B5A690AB15B699847A4
:1008F000E20604D5154B9A690AB19B6998476307CC
:1009000004D5124BDA690AB1DB699847200704D590
:100910000E4B1A6A0AB11B6A9847A10704D50B4B04
:100920009A6B0AB19B6B9847A20604D5074B1A6DC8
:100930000AB11B6D9847630604D5044B5A6D0AB182
:100940005B6D984710BD00BFA0C00440848DFF1FA1
:10095000094B10B51C68A2071C6004D5074B9A6EA2
:100960000AB19B6E9847E30704D5044BDA6F0AB1CE
:10097000DB6F984710BD00BFA0D00440848DFF1FDF
:10098000044B054900221A600A60044A10601022D4
:100990001A60704714D0034004D0034000D00340D5
:1009A000212810B518D80D4A52F8303093F88042FB
:1009B0003CB1012211B183F8802010BD83F80021E1
:1009C00010BD02EBC00043681A6811B142F0030287
:1009D00001E022F002021A6010BD00BF24360000C0
:1009E000212816D80B4A02EBC00301295B6852F894
:1009F000302004D182F880124FF4A27208E0002067
:100A000082F8800211B94FF4807201E040F20312C3
:100A10001A6070472436000072B60B4B0B491A68F7
:100A20000B4B1B68096862B6490102D5322A88BFA0
:100A30000133C2F53B427F323021B2FBF1F24FF479
:100A40007A7000FB0320704718E000E004ED00E03E
:100A50000C8EFF1F70B50446FFF7DEFF05466CB134
:100A600040F2E736FFF7D8FF401BB04203D9013C04
:100A700004D005F57A7502F03FF8F3E770BDFFFF8B
:100A800010B5FFF703FE164B164A174C00204BF625
:100A9000FF7118605960282313609360136193619C
:100AA0001362936213639363092222600F4C2060E8
:100AB0006160A360236144F8042C0D4C20600D4854
:100AC00001600D490B608B600C4B1A60FFF704FD51
:100AD0000420FFF7BFFFBDE8104001F069BA00BF76
:100AE000048003400C8003400080034004900340D6
:100AF00004800B4008800B400C800B4000800B40B2
:100B0000194B1A6842F480621A60184A0023137065
:100B1000174A1370174A1370174A1370174A137045
:100B2000174B40F213321A604FF451725A60154B52
:100B3000C0F344321A70C0F347125A7002210422E3
:100B400000F01F0098729A70D9745A7588221A742E
:100B50003C22DA700C4B40226FF44A711A705B1819
:100B60004FF400521A60704734800440928EFF1F89
:100B7000118EFF1F988EFF1F938EFF1F108EFF1F79
:100B800040A0044000A006402DE400E0134A937802
:100B900000F0030103F0EC030B43410748BF43F0AF
:100BA0001003937000F00F03042B0C4903D18B79D1
:100BB00043F040038B715379C20603F0EF03074AF9
:100BC00048BF43F0100353719379800603F0EF039D
:100BD00048BF43F010039371704700BF00A0064068
:100BE0000E4B1B68580510B503D410BD01F084FFEF
:100BF00000E00B4C2378002BF8D10A4A4FF4005147
:100C00001160094A0949D37040F203120A604A6030
:100C1000074A1370074A137010BD00BF34800440A8
:100C2000108EFF1F84E100E000A0064040A00440B9
:100C3000928EFF1F118EFF1F38B5094B04461D7899
:100C4000002DFCD120460121FFF7CAFE204629468F
:100C5000FFF7A6FE034B53F83420034B1A6038BD50
:100C6000108EFF1F24360000948EFF1F1D4B1B6843
:100C70005A052DE9F041074631D51B4B1B680BB1D6
:100C800001221A70194B1A4D1C781A4EDFF8688031
:100C900001343F2C88BF002414E0FFF7B3FC402848
:100CA0000CDC33791B060DD52B7801333F2B88BF25
:100CB000002318F80320F2712B7003E0FF2801DDF8
:100CC00001F01AFF2B78A342E7D00B4B1F550B4BBB
:100CD00001221A70054B1C70064BBC22DA70BDE86D
:100CE000F08100BF34800440948EFF1F988EFF1F58
:100CF000938EFF1F00A00640128EFF1F108EFF1F55
:100D00002DE9F84F254B1B6806465805894642D504
:100D1000234B1B680BB101221A70224DB346AA4621
:100D200032E0214B1C782F7801343F2C88BF0024FF
:100D3000A74209D01BF8012B1C4B1A551C4B012252
:100D40001A70194B1C701FE01A4BBC22DA709846BF
:100D5000FFF758FC40280FDC98F8043019060FD52F
:100D60002B78124A01333F2B88BF0023D25C88F8CE
:100D700007208AF8003003E0FF2801DD01F0BCFE07
:100D80002B78BB42E4D0D5E706EB09039B45C8D3DB
:100D9000084BBC22DA70BDE8F88F00BF34800440F5
:100DA000948EFF1F938EFF1F988EFF1F128EFF1FC2
:100DB000108EFF1F00A0064010B5044C01E001F0AA
:100DC0009BFE2378002BFAD110BD00BF108EFF1FB1
:100DD000054B064A1B781078834201D33F3000E070
:100DE0000138C01A704700BF988EFF1F938EFF1FF7
:100DF000044B1878044B1B78984238BF4030C01A17
:100E0000704700BF928EFF1F118EFF1F084B094ACB
:100E100019781378994207D001333F2B88BF0023FC
:100E20000549C85C137070474FF0FF30704700BF32
:100E3000928EFF1F118EFF1F528EFF1F074B1A78D5
:100E4000074B1B789A4206D001333F2B88BF002303
:100E5000044AD05C70474FF0FF307047928EFF1FFE
:100E6000118EFF1F528EFF1F094B1B685B050ED5AD
:100E7000084BDA7802F0CB02DA7040225A74DA7842
:100E800042F03402DA70044B1A78044B1A7070473F
:100E90003480044000A00640118EFF1F928EFF1F79
:100EA00070B52D4B1A7912F0300F1DD072B6997DA6
:100EB00021B9DA7940225A7462B615E062B6274A3F
:100EC00027481278274D00781C46531C3F2B88BFBB
:100ED0000023E67983421CBFEE541A46013911F013
:100EE000FF01F2D11D4B1A701B4AD37819465BB231
:100EF000002B1BDA1379180618D51B4B1B4C1D78D9
:100F00001B4B1B78AB4209D001333F2B88BF00231A
:100F10001079E05CD071107D0728F3D9144A137062
:100F20000D4B1A79120601D57C22DA7001F04003CC
:100F3000DBB27BB1084B1A7902F04002D2B21946FB
:100F400042B10C4B00221A700B4B1B6803B11A7094
:100F50003C23CB7070BD00BF00A00640928EFF1FE7
:100F6000118EFF1F528EFF1F988EFF1F128EFF1FC4
:100F7000938EFF1F108EFF1F948EFF1F184B1A6851
:100F800042F400621A60174A00231370164A137065
:100F9000164A1370164A1370164A1370164B40F215
:100FA00013321A604FF451725A60144BC0F344323A
:100FB0001A70C0F347125A7000F01F000422022179
:100FC00098729A70D9745A7588221A743C22DA7011
:100FD0000B4B40221A700B4B4FF400421A607047C3
:100FE00034800440038FFF1F9A8EFF1F0C8FFF1F5A
:100FF000048FFF1F998EFF1F0CB0044000B0064005
:101000002FE400E004E100E0134A937800F00301CC
:1010100003F0EC030B43410748BF43F01003937008
:1010200000F00F03042B0C4903D18B7943F04003EC
:101030008B715379C20603F0EF03074A48BF43F0B0
:10104000100353719379810603F0EF0348BF43F017
:1010500010039371704700BF00B006400E4B1B6831
:10106000180510B503D410BD01F046FD00E00B4C8F
:101070002378002BF8D10A4A4FF400411160094A45
:101080000949D37040F203120A604A60074A13709C
:10109000074A137010BD00BF34800440998EFF1FB3
:1010A00084E100E000B006400CB00440038FFF1F55
:1010B0009A8EFF1F38B5094B04461D78002DFCD1D0
:1010C00020460121FFF78CFC20462946FFF768FCEB
:1010D000034B53F83420034B1A6038BD998EFF1F21
:1010E00024360000088FFF1F1D4B1B681A052DE9D1
:1010F000F041074631D51B4B1B680BB101221A701A
:10110000194B1A4D1C781A4EDFF868800134272CD1
:1011100088BF002414E0FFF775FA40280CDC33790F
:101120001B060DD52B780133272B88BF002318F819
:101130000320F2712B7003E0FF2801DD01F0DCFCDD
:101140002B78A342E7D00B4B1F550B4B01221A7093
:10115000054B1C70064BBC22DA70BDE8F08100BF65
:1011600034800440088FFF1F0C8FFF1F048FFF1F68
:1011700000B006409B8EFF1F998EFF1F2DE9F84F90
:10118000254B1B6806461805894642D5234B1B682C
:101190000BB101221A70224DB346AA4632E0214B10
:1011A0001C782F780134272C88BF0024A74209D04F
:1011B0001BF8012B1C4B1A551C4B01221A70194BA2
:1011C0001C701FE01A4BBC22DA709846FFF71AFA1F
:1011D00040280FDC98F8043019060FD52B78124AF6
:1011E0000133272B88BF0023D25C88F807208AF8B8
:1011F000003003E0FF2801DD01F07EFC2B78BB42CC
:10120000E4D0D5E706EB09039B45C8D3084BBC22C5
:10121000DA70BDE8F88F00BF34800440088FFF1FEC
:10122000048FFF1F0C8FFF1F9B8EFF1F998EFF1FC8
:1012300000B0064010B5044C01E001F05DFC2378DD
:10124000002BFAD110BD00BF998EFF1F054B064A37
:101250001B781078834201D3273000E00138C01A90
:10126000704700BF0C8FFF1F048FFF1F044B1878BF
:10127000044B1B78984238BF4030C01A704700BFFB
:10128000038FFF1F9A8EFF1F084B094A19781378A6
:10129000994207D001333F2B88BF00230549C85C22
:1012A000137070474FF0FF30704700BF038FFF1F70
:1012B0009A8EFF1FC38EFF1F074B1A78074B1B78B0
:1012C0009A4206D001333F2B88BF0023044AD05CEA
:1012D00070474FF0FF307047038FFF1F9A8EFF1F3C
:1012E000C38EFF1F094B1B681B050ED5084BDA7810
:1012F00002F0CB02DA7040225A74DA7842F03402FB
:10130000DA70044B1A78044B1A707047348004402A
:1013100000B006409A8EFF1F038FFF1F70B52D4B44
:101320001A7912F0300F1DD072B6997D21B9DA7991
:1013300040225A7462B615E062B6274A27481278EE
:10134000274D00781C46531C3F2B88BF0023E679AD
:1013500083421CBFEE541A46013911F0FF01F2D14D
:101360001D4B1A701B4AD37819465BB2002B1BDA4F
:101370001379180618D51B4B1B4C1D781B4B1B787B
:10138000AB4209D00133272B88BF00231079E05CE2
:10139000D071107D0728F3D9144A13700D4B1A79B8
:1013A000120601D57C22DA7001F04003DBB27BB17A
:1013B000084B1A7902F04002D2B2194642B10C4BE6
:1013C00000221A700B4B1B6803B11A703C23CB70C0
:1013D00070BD00BF00B00640038FFF1F9A8EFF1F35
:1013E000C38EFF1F0C8FFF1F9B8EFF1F048FFF1FDD
:1013F000998EFF1F088FFF1F174B1A6842F4805207
:101400001A60164A00231370154A1370154A137098
:10141000154A1370154A1370154A40F213311160C2
:101420004FF451715160134AC0F344311170C0F34D
:10143000471100F01F0051709072937013742C23A9
:10144000D3700D4B40226FF44B711A705B184FF440
:1014500000321A60704700BF34800440778FFF1F4E
:101460000E8FFF1F808FFF1F788FFF1F0D8FFF1FB5
:1014700008C0044000C0064031E400E0134A9378FD
:1014800000F0030103F0EC030B43410748BF43F0B6
:101490001003937000F00F03042B0C4903D18B79D8
:1014A00043F040038B715379C20603F0EF03074A00
:1014B00048BF43F0100353719379800603F0EF03A4
:1014C00048BF43F010039371704700BF00C006404F
:1014D0000E4B1B68D80410B503D410BD01F00CFBF3
:1014E00000E00B4C2378002BF8D10A4A4FF400316E
:1014F0001160094A0949D37040F203120A604A6038
:10150000074A1370074A137010BD00BF34800440AF
:101510000D8FFF1F84E100E000C0064008C00440BA
:10152000778FFF1F0E8FFF1F38B5094B04461D78BC
:10153000002DFCD120460121FFF752FA2046294612
:10154000FFF72EFA034B53F83420034B1A6038BDD3
:101550000D8FFF1F243600007C8FFF1F1D4B1B6863
:10156000DA042DE9F041074631D51B4B1B680BB15E
:1015700001221A70194B1A4D1C781A4EDFF8688038
:101580000134272C88BF002414E0FFF73BF84028E3
:101590000CDC33791B060DD52B780133272B88BF44
:1015A000002318F80320F2712B7003E0FF2801DDFF
:1015B00001F0A2FA2B78A342E7D00B4B1F550B4B3F
:1015C00001221A70054B1C70064BAC22DA70BDE884
:1015D000F08100BF348004407C8FFF1F808FFF1F8D
:1015E000788FFF1F00C006400F8FFF1F0D8FFF1F5A
:1015F00038B54518044603E014F8010BFFF7AEFFB9
:10160000AC42F9D138BDFFFF10B5044C01E001F048
:1016100073FA2378002BFAD110BD00BF0D8FFF1F86
:10162000054B064A1B781078834201D3273000E02F
:101630000138C01A704700BF808FFF1F788FFF1FCF
:10164000044B1878044B1B78984238BF4030C01ABE
:10165000704700BF778FFF1F0E8FFF1F084B094A8F
:1016600019781378994207D001333F2B88BF0023A4
:101670000549C85C137070474FF0FF30704700BFDA
:10168000778FFF1F0E8FFF1F378FFF1F074B1A78B3
:10169000074B1B789A4206D001333F2B88BF0023AB
:1016A000044AD05C70474FF0FF307047778FFF1FC0
:1016B0000E8FFF1F378FFF1F024B1A78024B1A70D5
:1016C000704700BF0E8FFF1F778FFF1F10B5214B94
:1016D0001A7902F02002D2B26AB11F4AD8791F49A2
:1016E0001378097801333F2B88BF00238B4202D047
:1016F0001B49C8541370174AD37818465BB2002BA5
:1017000013DA1379190610D5164B17491C780B7884
:101710009C4202D16C23D37007E00133272B88BF92
:101720000023124CE45CD4710B7000F04003DBB278
:101730007BB1084B1A7902F04002D2B2194642B18D
:101740000B4B00221A700B4B1B6803B11A702C2331
:10175000CB7010BD00C00640778FFF1F0E8FFF1F9C
:10176000378FFF1F808FFF1F788FFF1F0F8FFF1F87
:101770000D8FFF1F7C8FFF1F1FB572B6154B702298
:101780001A70154A412111700F2102F8011C8022A4
:101790001A701A781206FCD5104B186862B6104BF6
:1017A000984201D80A23584301A90A22FEF750FFA4
:1017B0000C48002301AA9A5C2AB100EB43010133D3
:1017C0000A2B4A80F6D10133064A5B00137005B03C
:1017D00000BD00BF000002400700024008000240B8
:1017E0007F9698004688FF1FF0B50C4B0C4C1A787A
:1017F00042F0020504EBC50682F001027060094860
:101800001A700678002E0CBF8827C82747EA0141C6
:1018100086F0010644F835100670F0BD0090FF1FF9
:101820000080FF1F8890FF1F431E052B10B510D8A6
:1018300072B6094A52F8230048B1416842F82310B1
:10184000064A018832F81340611A22F8131062B672
:1018500010BD002010BD00BFE88FFF1FB891FF1F13
:10186000013805280BD872B6064B53F820300020FB
:1018700001E05B680130002BFBD162B670470020AD
:10188000704700BF4490FF1F70B572B6184E194CD8
:1018900001239A1912F8012C02F00802D2B2E2B127
:1018A0009900144A54F831502DB902EB4313083013
:1018B0005860114B09E041F0010154F8315065B90D
:1018C00002EBC103083058600C4B42F831300C4B2E
:1018D0001A78013A1A7062B670BD0133072BD8D15D
:1018E00062B6074B00221A70BDE8704000F0CCBB16
:1018F000343700000080FF1F88004000C80040000F
:101900007E90FF1F431E052B30B532D84001194A87
:1019100040F01000101872B6174CE25C032A09D888
:10192000DFE802F0160218050830022213E0083042
:10193000042210E01148124A50F8234014B940F82C
:10194000231002E052F82300416042F823100FE018
:10195000032200E00522E25410F0080F01F1080311
:101960000A8843600CBF8823C82343EA024303600C
:1019700062B630BD0080FF1FA08FFF1F4490FF1F85
:101980005C90FF1F2DE9F74FA34EA44C357805F06E
:101990000403DBB2ABB1A24B1B7883B1A14A13782D
:1019A00023B1013BDBB2137003B900BE9E4A13782A
:1019B0002BB1013BDBB213700BB900F097FC042391
:1019C000337005F00802D2B2002A00F07B82974BF8
:1019D0001B781D094FEA930940F0F98154F839202A
:1019E00004EBC903C2F38302013A5B680C2A00F2DC
:1019F000EB81DFE812F0A001A001E901E901E901B2
:101A0000E901E901E901C001E901E901E9010D008C
:101A10001A6887495B68874D4B60874B0A6044F8BA
:101A20003930864B0020186001232B7092B240F2AF
:101A30008165AA422061A06117D8B2F5D06F80F00D
:101A40002881B2F5817F00F0D58006D8802A00F089
:101A5000BB80822A40F03581BAE040F202339A42DC
:101A600000F00881B2F5A06F10E0B2F5106F10D051
:101A700004D8B2F5086F40F02481A0E040F62113AD
:101A80009A4200F0558103F580739A4240F0198123
:101A90001BE18A78624B614D1A702B6A180603D5D8
:101AA000686A083800F0F0FA654908358D42F4D1CB
:101AB000DFF8B491DFF8B4B10025A846CA4655F85E
:101AC000090005E04368009300F0DEFA009B184629
:101AD0000028F7D15B4B4AF8050045F80B00E858A1
:101AE00007E042680093019200F0CEFA019A009B51
:101AF00010460028F5D15851534BE850534B23F86A
:101B00001800534B18F80320023A032A08D8DFE8DC
:101B100002F002040204002200E0012203F808207F
:101B200008F101080435B8F1060FC8D1494BDFF8B8
:101B3000409100221A7001259846474B05EB090297
:101B4000EB1812F8012C9B001A7002F00802D2B2B6
:101B50003AB300F07BFAAB0038B104EB4512083021
:101B600050603E4A44F8332006E044F8330098F8C9
:101B70000030013388F8003000F068FAAB0043F021
:101B8000010338B104EBC302083050602A4A44F81C
:101B9000332006E044F8330098F80030013388F829
:101BA0000030AA0042F00201013542F00302002396
:101BB000072D44F8313044F83230BED129E0184ABC
:101BC000274D12782A7083E0254D287068707EE0DA
:101BD0008A88062A00D974E09100224A204D8A188A
:101BE00028706870127802F00202D2B2002A6ED019
:101BF0002B706CE08A8802F07F03062B61DC4B8837
:101C000003B15EE09100174A8A18117821F00201B1
:101C100011701D465CE000BF802007400080FF1F60
:101C20008790FF1F0190FF1F9890FF1F9020074093
:101C30007490FF1F8890FF1FC8004000848FFF1F13
:101C4000C080FF1F4490FF1F5C90FF1FB891FF1FD3
:101C5000A08FFF1F7E90FF1F30C80110880040003A
:101C60007F90FF1FC0200740E88FFF1F888FFF1F56
:101C7000343700008A8802F07F03062B21DC4B8872
:101C800003B11EE09100A04A8A18117841F00201C8
:101C9000BEE74A889D4B898853F8085CA3F10C0085
:101CA0007DB133F80CCC944509D133F80ACC8C457E
:101CB00005D1120A032A0CBF2B78038908E00C33E4
:101CC000EAE7914B0F221A7032E00023A1E70223CA
:101CD0008F4AB2F806904B4538BF9946B9F1400F8C
:101CE00034BFC8464FF0400828464146FFF77CFD08
:101CF000B9EB0809454403D1B8F1400F07D017E00C
:101D0000B9F1400F34BFC8464FF0400800E0C84664
:101D100028464146FFF768FDB9EB0809454402D162
:101D2000B8F1400F04D17B4B7B4A1D60A2F80090B4
:101D300001227A4B47E0764A79481168814216D1F0
:101D40005168784A914212D11A78A92A0FD15A784B
:101D5000452A0CD19A78C22A09D1DB786B2B06D19F
:101D6000714B0020052201461A70FFF73DFD6F4BB5
:101D700044F8393028E0674BD3F80080B8F1000F01
:101D800018D0DFF89491B9F800A0BAF1400F34BF31
:101D90005546402540462946FFF726FDC5EB0A0378
:101DA0009BB2A9F800300BB9402D01D108EB050317
:101DB000584A1360564B1A88B2F5A06F04D100221E
:101DC0005A709A785A4B1A700122544B6DE004EB0A
:101DD000C90803F00803D8F80420013DD9B2A2F1E4
:101DE0000800EDB2002937D000F04EF95148524BAF
:101DF00050F82510F1B14A6840F8252001F1080299
:101E0000C8F804205A5D032A0BD8DFE802F0020468
:101E10000608032204E0022202E0052200E0042278
:101E20005A5518F0080F0A880CBF8823C82343EAC4
:101E3000024342E05A5D032A07D8DFE802F040403F
:101E40000204002206E0012204E018F0080F0CBF93
:101E5000022203225A5532E054F839301B0C22F882
:101E6000083C23B322F8061C42F8041C334A3449C8
:101E700052F8257017B942F8250002E051F82520E4
:101E80005060304A41F8250032F815105B1822F8EE
:101E9000153000F0DBF818B10830C8F8040006E08F
:101EA000294B44F839001A7801321A7007E01F4BA9
:101EB000264A18F0080F08BF134644F839300823A3
:101EC000337063E5E90751D514492048204C0223BB
:101ED0000B70204B1A70204B186098601F481A61D5
:101EE000D8609A615C60084B0D2018701C48FF2375
:101EF000037000F8083C02741A4A13701A4B9F22B0
:101F00001A7001230B704AE0C020074048370000D8
:101F10007490FF1F848FFF1F7C90FF1F9420074049
:101F200021090003010004000190FF1FC8004000C8
:101F3000982007404490FF1FA08FFF1FE88FFF1FCE
:101F4000888FFF1FB891FF1F7E90FF1F8800400001
:101F5000A88FFF1F0090FF1F0080FF1F0490FF1F2E
:101F6000882007408C200740842007402B0605D599
:101F70000C4B0D221A70802203F8402C05F002034E
:101F8000DBB22BB1084B1A781A70022203F8082C26
:101F900005F01005EDB215B1044B10221A70BDE822
:101FA000FE8F00BFC02007408820074080200740E8
:101FB00008B5FFF7E1FB00231E491A465A50C8181E
:101FC0000833C82B4260F9D11B4B1A6842F48022B7
:101FD0001A601A4B80221A701978184A0906FBD425
:101FE000144B1749C3F307200870C3F307401B0EB7
:101FF00008750B76FF2301F81C3C01F8143C01F82E
:102000008C3C137843F0400313700021012302F845
:10201000783C02F80C1C02F8883C0A4B70226FF4E2
:10202000507C1A7063444FF400721A60064B102201
:102030001A7008BD0080FF1F348004400C21074047
:102040009C20074049E400E00821074072B60C4A92
:102050001168B1FA81F30B2B02D962B600207047E8
:102060004FF0004020FA03F021EA0001116062B64F
:10207000044948225343C8180022CA50426070479E
:102080005C88FF1F0084FF1F0C4B4822C31AB3FB60
:10209000F2F30B2B11D80A4A127822B1094A1278AE
:1020A0000AB1FFF7F1BB72B6074A4FF0004121FABF
:1020B00003F311681943116062B670470084FF1F73
:1020C0007E90FF1F8790FF1F5C88FF1FF8B5124DA1
:1020D000124E2F463378DBB12B681BB90220FFF775
:1020E000A3FB2860386898B14388C218147A5CB1A1
:1020F00002880133934205D3FFF7C6FF064B002247
:102100001A6007E0438005E0FFF7BEFF2C60E1E7BF
:102110004FF0FF342046F8BD9490FF1F8790FF1FBB
:10212000F8B50C4D0C4E2F4633787BB12B681BB99C
:102130000220FFF779FB2860386838B14388C3185C
:102140001C7A2CB9FFF7A0FF2C60EDE74FF0FF34AD
:102150002046F8BD9490FF1F8790FF1F38B5124CA2
:10216000236833B1104B1868438802880024C518CF
:1021700010E00E4B1B781BB10220FFF755FB2060CF
:102180002468002CEED10DE02919097A09B94CB95F
:1021900004E00134E1189142F6DBF8E7FFF774FF41
:1021A000014B1C60204638BD9490FF1F8790FF1F95
:1021B0002DE9F843314B324DDFF8D09001220C4627
:1021C0001A70064653E02B685BBB2C4F43F229285C
:1021D00099F8003013B9294A137018E00120FFF76D
:1021E0003FFB052804D9B8F10108264A08D109E0C7
:1021F00001233B70FFF72AFF28600028F3D010E08E
:10220000137843B1012313701C4B00221A704FF056
:10221000FF30BDE8F8833B7000F06EFC01233B709B
:10222000D6E72968174A488800231370C0F1400296
:10223000944238BF224600F108078018CF19488021
:10224000A41A02E0F05CF85401339342FAD1F61874
:102250004B883F2B0C4B02D805221A7007E0402216
:102260000A80002701201F70FFF74CFB2F60002C15
:10227000A9D1024B20461C70BDE8F8838990FF1F4E
:102280008C90FF1F9090FF1F9890FF1F8790FF1F5B
:1022900007B502AB012103F8010D1846FFF788FFCF
:1022A0000EBDFFFF38B50E4B1B78C3B10D4B19683F
:1022B000A9B14A889AB10C48002303708C181D46B6
:1022C00002E0E0180133057298183F28F9DD402339
:1022D0000B800120FFF716FB024B00221A6038BD6D
:1022E0008790FF1F8C90FF1F9890FF1F38B50C4BF5
:1022F0001B789BB90B4A11684A881D468C1802E06E
:10230000E0180133057298183F28F9DD40230B804F
:102310000120FFF7F7FA034B00221A6038BD00BF17
:102320008990FF1F8C90FF1F08B5FEF7A9FB0D20B9
:102330000121FEF755FB01210D20FEF731FB4FF483
:102340007A70FEF787FB0D200021FEF729FB4FF482
:102350007A70FEF77FFBEAE7094B1B7813B9094B4C
:102360001B782BB1084A1378202B03D90123037162
:10237000002070470548C154013313700120704795
:10238000FE90FF1FC190FF1FFF90FF1FA090FF1F37
:102390007047FFFF024B1878024B1B78C01A70473A
:1023A000FD90FF1FFC90FF1F064A0749137809782C
:1023B000994204D90549C85C0133137070474FF046
:1023C000FF307047FC90FF1FFD90FF1FC290FF1F62
:1023D000054B064A1B7812789A4202D9044AD05C0F
:1023E00070474FF0FF307047FC90FF1FFD90FF1FBC
:1023F000C290FF1F38B50E4B1B78144613B90D4B16
:102400001B788BB10C4B1D78C5F121039C4202D97E
:10241000012202711C4609482246401900F0A4FE20
:10242000054B2D191D7000E01C46204638BD00BF2D
:10243000FE90FF1FC190FF1FFF90FF1FA090FF1F86
:1024400010B5104B1B7813F020040BD11220FEF7AF
:102450005BF90D4B1B68A3B10C4A14700C4A107841
:10246000984710BD0B4A13780133DBB2012B137070
:1024700002D8094B1B7823B91220BDE81040FEF7A3
:1024800043B910BD036006409C90FF1FFC90FF1FE6
:10249000FD90FF1FE890FF1FC190FF1F00220271F7
:1024A0000273034A4FF47A7181600260704700BF83
:1024B000C837000010B5374A137803F01001C9B2CD
:1024C00021B903F04002D2B242B92EE010211170BE
:1024D00003F04002D2B2002AF3D110BD13F004037E
:1024E0002D4A18D0002313702C4A13702C4B1B68F4
:1024F000144603B1984722782A4B1AB927491A7013
:1025000001200870284AD02111701A78274B1A70C0
:102510000122274B21E001211170264A1370224B22
:10252000C0221A7002331B7830E01F4A1F4C11780A
:1025300011F0100117D013F0010310D11C491748F6
:102540000A780078904205D9164B9B5C01322370C3
:102550000A7000E02370144BD0221A7016E0C023DA
:102560001370237812E0144B1220197003221349C0
:10257000FEF7A0F80F4A207813781F2B06D80649DB
:10258000097819B10E49C85401331370014B022266
:102590001A7010BD036006409990FF1FFF90FF1F47
:1025A000E490FF1FA090FF1F0260064004600640F9
:1025B0000091FF1FFD90FF1FE890FF1F41240000C6
:1025C000C290FF1F0148FFF769BF00BFEC90FF1FDB
:1025D000F8B5164B164D1A6842F080721A60154B0A
:1025E0001A6842F001021A60134B2E681C680FE053
:1025F000237A63B121682F680B68204698472A68C0
:10260000E388D21B12099A42A28088BFE2806469E3
:10261000002CEDD1064B094A1B689B1B1B0913803C
:10262000074A11888B4288BF1380F8BDFCED00E09B
:10263000041000E0001000E00491FF1F0A91FF1F4A
:102640000891FF1F08B50368C9B21B68984708BD09
:1026500008B50368C9B21B68984708BD08B5036888
:10266000C9B21B68984708BD08B50368C9B21B68A2
:10267000984708BD084608B5FEF7F8FA012008BDDE
:10268000084608B5FEF7F2FA012008BD38B508463D
:102690000D46FDF7D5FF044621462846FEF730FBE0
:1026A000204638BD10B5084614461146FEF728FBF3
:1026B000204610BDFEF78CBBFEF7D6BBFEF77CBBF9
:1026C000FEF7A4BBFEF7BABBFEF792BB0846FEF7C7
:1026D000B3BAFEF785BA480800F1B76000F5584074
:1026E000B0FBF1F0FEF70CBA480800F1B76010B586
:1026F00000F55840B0FBF1F01446FEF701FA204611
:10270000BDE81040FEF742BA7047FFFF044B0022BD
:102710001A711A73034A4FF47A7199601A607047FC
:102720000C91FF1FE837000008B50368C9B21B68A9
:10273000984708BD08B50368C9B21B68984708BD2B
:1027400008B50368C9B21B68984708BD08B5036897
:10275000C9B21B68984708BD084608B5FEF7C4FC17
:10276000012008BD084608B5FEF7BEFC012008BDE3
:1027700038B508460D46FDF763FF04462146284656
:10278000FEF7FCFC204638BD10B50846144611463D
:10279000FEF7F4FC204610BDFEF758BDFEF7A2BDC3
:1027A000FEF748BDFEF770BDFEF786BDFEF75EBDC5
:1027B0000846FEF77FBCFEF751BC480800F1B76041
:1027C00000F55840B0FBF1F0FEF7D8BB480800F127
:1027D000B76010B500F55840B0FBF1F01446FEF7B5
:1027E000CDFB2046BDE81040FEF70EBC7047FFFF52
:1027F000044B00221A711A73034A4FF47A719960DC
:102800001A6070471C91FF1F3838000008B5036834
:10281000C9B21B68984708BD08B50368C9B21B68F0
:10282000984708BD08B50368C9B21B68984708BD3A
:1028300008B50368C9B21B68984708BD084608B5C3
:10284000FEF78CFE012008BD084608B5FEF786FE9F
:10285000012008BD38B508460D46FDF7F1FE0446D7
:1028600021462846FEF7C4FE204638BD10B508466E
:1028700014461146FEF7BCFE204610BDFEF7D0BE42
:10288000FEF71ABFFEF7C0BEFEF7E8BEFEF7FEBEBB
:10289000FEF7D6BE0846FEF747BEFEF719BE48084B
:1028A00000F1B76000F55840B0FBF1F0FEF7A4BDB1
:1028B000480800F1B76010B500F55840B0FBF1F0E2
:1028C0001446FEF799FD2046BDE81040FEF7D6BD40
:1028D0007047FFFF044B00221A711A73034A4FF42A
:1028E0007A7199601A6070472C91FF1F8838000038
:1028F0002DE9F041002407460D4626463B190A22E1
:1029000019792846002300F08AF82B6880462E218A
:102910001B682846984701344044032C0644EDD1F7
:102920002846F9790A22002300F079F88019BDE8D9
:10293000F081FFFF044B054A1A6000221A715A7198
:102940009A71DA71704700BF3C91FF1FD8380000C0
:1029500008B5034B01221A60024B1B68984708BD5B
:102960000C7103404C91FF1F08B5034B01221A6004
:10297000024B5B68984708BD1C7103404C91FF1FD8
:1029800008B5034B01221A60024B9B68984708BDAB
:102990002C7103404C91FF1F08B5034B01221A60B4
:1029A000024BDB68984708BD3C7103404C91FF1F08
:1029B000054B01221A60054B1A6822F400021A60C6
:1029C000034B00221A707047007003403C800440A3
:1029D0004891FF1F037B0122591103F01F0302FAE4
:1029E00003F3084A42F821308268002313604178DB
:1029F000054A5354D15C21B90133042BFAD1FFF7B6
:102A0000D7BF704780E100E04491FF1F037810B505
:102A100004460BB1FFF7DEFF0023237010BDF0B5B5
:102A200005468BB022B90368C9B21B6898472CE0F1
:102A3000012A08BF0A2221B930228DF8252021243D
:102A400013E02124B1FBF2F002FB1011C9B20929F5
:102A500001D8303100E037310AAF3E1906F8241CA6
:102A6000014610B1013CE4B2ECE733B1013C0AAAE3
:102A7000E4B213192D2203F8242C2B6801AF5B68F4
:102A800028463919C4F1220298470BB0F0BD10B5A1
:102A90000446FFF7BBFF204610BDFFFF0448054971
:102AA000054A002303708023437300F045B800BF3C
:102AB0005C91FF1F8F2A00006087FF1F08461146A8
:102AC000FFF776BB0846FFF7E3BBFFF7EBBBFFF76B
:102AD00027BBFFF7FBBAFFF741BB7047044B00224F
:102AE0001A711A73034A4FF47A7199601A60704729
:102AF0007091FF1FE838000008B50E4B1A78C2B974
:102B000001221A70FFF72AFB08B1FFF7E6FFFEF774
:102B10006FF908B1FFF7F8FDFEF7A8FB08B1FFF762
:102B200065FEFEF78DFD08B1FFF7D2FE014B0022D6
:102B30001A7008BD8091FF1F03460846194600F031
:102B400001B800BF30B405460C46134602202946A2
:102B5000224630BC00F0DABB70B543F6741643F67B
:102B60007415C0F20006C0F20005761BB61007D03F
:102B7000043D002455F8043F01349847A642F9D19A
:102B800043F6941643F67415C0F20006C0F2000531
:102B9000761B00F0E9FEB61008D0043D002455F87D
:102BA000043F01349847A642F9D170BD70BD00BF03
:102BB00048F660030146C1F6FF73186800F008B8D4
:102BC00048F660030146C1F6FF73186800F060BC68
:102BD0002DE9F04F01F10B04162C83B0074630D9D4
:102BE00024F00704E30F8C422CBF194643F0010187
:102BF00000292FD1384600F071FBB4F5FC7F2ED2AE
:102C00004FEAD40C48F65416C1F6FF7606EBCC0218
:102C1000D368934200F01182596803F10808DA681A
:102C2000384621F0030499681B195C68CA6044F0B7
:102C3000010491605C6000F053FB404603B0BDE8C6
:102C4000F08F002310248C422CBF194643F0010161
:102C50000029CFD00C234FF000083B60EDE75FEA7E
:102C6000542C04BF4FEAD40C4FEA4C0540F08F803F
:102C700048F65416C1F6FF7606EB8505EB689D42D3
:102C800006D10DE0002A80F25581DB689D4207D015
:102C9000596821F003010A1B0F2AF3DD0CF1FF3CF8
:102CA0000CF1010C48F654123369C1F6FF7202F1BF
:102CB000080E734508BFD2F8049022D0586820F05F
:102CC0000300011B0F2900F384810029C2F814E0DE
:102CD000C2F810E066DAB0F5007F80F04E81C108DE
:102CE0004FF0010802EBC100891008FA01F85168A1
:102CF0008568D86048EA0109C2F804909D60EB60DD
:102D0000836001224FEAAC0302FA03F34B4554D827
:102D100019EA030F0DD193402CF0030C19EA030FAD
:102D20000CF1040C05D15B000CF1040C19EA030F43
:102D3000F9D006EBCC09E0464846C268904207D17C
:102D40005BE1002980F28381D268904200F05581D6
:102D5000556825F00305291B0F29F2DD904613194C
:102D6000D56844F0010058F8084F41F0010C50605C
:102D70003846C3F804C0E560AC6073613361C3F8E2
:102D80000CE0C3F808E0595000F0AAFA55E7BCF18E
:102D9000040F00F2DE804FEA941C0CF1380C4FEA6D
:102DA0004C0565E71A1803F108083846536843F0E4
:102DB0000103536000F094FA3FE7B5686B6823F0B5
:102DC000030A544504D8C4EB0A030F2B00F3A48074
:102DD00049F28419D6F80814C1F6FF7905EB0A0206
:102DE0000131D9F80030234408BF03F1100B06D09D
:102DF00003F580530F3323F47F6323F00F0B384622
:102E00005946019200F06EFA019A411C804600F08A
:102E10006881824200F23181D9F8043042455B4436
:102E2000C9F8043000F06681D6F8081448F654104A
:102E3000C1F6FF70013117BFC2EB0802C0F8088469
:102E40009B18C9F8043018F0070338461FBFC3F1B8
:102E50000802C3F58053904403F1080208EB0B030A
:102E600008BF4FF480521B051B0DC3EB020B5946E4
:102E700000F038FA431C00F04981C8EB00015944C6
:102E800041F00101D9F80430B54249F28412C6F884
:102E900008805B44C1F6FF72C8F80410C9F804301A
:102EA00018D0BAF10F0F40F20B81AAF10C0069683B
:102EB00020F007004FF0050C05EB000E0F2801F085
:102EC000010140EA01016960CEF804C0CEF808C0F3
:102ED00000F2208149F28412D9F82C10C1F6FF7259
:102EE000B5688B42D9F8301088BFD36249F284129A
:102EF000C1F6FF728B4288BF13636A6822F0030237
:102F00009442C4EB020301D80F2B05DC38464FF086
:102F1000000800F0E5F990E62A1943F0010344F0B7
:102F2000010438466C6005F108085360B26000F097
:102F3000D7F982E65918DA689C6838464D6803F17B
:102F4000080845F00105E26094604D6000F0C8F9A2
:102F500073E6BCF1140F9CBF0CF15B0C4FEA4C05FF
:102F60007FF686AEBCF1540F00F293804FEA143C1A
:102F70000CF16E0C4FEA4C057AE6420A042A75D928
:102F8000142A9CBF02F15B094FEA490508D9542A6B
:102F900000F2C9804FEA103909F16E094FEA49057C
:102FA00006EB850548F65418C1F6FF78AA68AA42D0
:102FB00079D0516821F00301884202D2926895428B
:102FC000F7D1D068D6F80490D8609A60D360836057
:102FD00097E61D1941F00106556144F001041561A1
:102FE00038465C6003F10808C5F80CE0C5F808E055
:102FF0006E60695000F074F91FE608F101080830AE
:1030000018F0030F7FF499AE4A461CF0030FA2F1AB
:1030100008010CF1FF3C00F09E8012688A42F4D057
:1030200072685B0093423FF6C8AE002B3FF4C5AE1A
:103030001A4200F09580C4467BE603F108025B6902
:103040009A4208BF0CF1020C3FF42CAEE4E5904626
:103050005519D368384658F8082F6968D36041F08D
:1030600001019A60696000F03BF9E6E54FEA9019CA
:1030700009F138094FEA490592E7B54248F6541379
:10308000C1F6FF733FF4C8AE9D686A6822F0030280
:1030900036E7BCF5AA7F19D84FEAD43C0CF1770C7F
:1030A0004FEA4C05E4E50125D8F804104FEAA909D8
:1030B000104605FA09F545EA0109C8F8049083E7C6
:1030C00001234546C8F80430002219E740F2545362
:1030D0009C450BD84FEA944C0CF17C0C4FEA4C0504
:1030E000C6E5B5686A6822F0030209E7FC254FF0DF
:1030F0007E0CBDE51105090D00297FF495AEB2687F
:103100000BEB0A0141F001015160E3E601214FF0B0
:10311000000BB7E6384605F10801019200F0B8F956
:10312000019A5368D6E6B2F5AA7F06D84FEAD0399D
:1031300009F177094FEA490532E740F25451FC257D
:103140008A424FF07E099EBF4FEA904909F17C09FF
:103150004FEA490524E7726822EA0302726060E7D9
:103160005B0008F1040863E7032A2DE9F00F09D892
:103170002AB10023CC5CC45401339342FAD1BDE898
:10318000F00F7047830702440ED0441C4D1C15F805
:10319000017C04F00306234601342946013504F876
:1031A000027C002EF3D100E0034611F003046DD041
:1031B000D71A0D1B032F2E6819DDC4F1040C4FEA3A
:1031C000C4081C1D4FEACC0C55F8047FC4EB02095F
:1031D000234604310434B9F1030F26FA08FA07FA3A
:1031E0000CFB3E464BEA0A0744F8087CECDC9A42AA
:1031F000C5D901330131013211F8014C01330131DC
:10320000934203F8024CF7D1B9E70C6840334031E0
:1032100043F8404C51F83C4C43F83C4C51F8384C86
:1032200043F8384C51F8344C43F8344C51F8304C96
:1032300043F8304C51F82C4C43F82C4C51F8284CA6
:1032400043F8284C51F8244C43F8244C51F8204CB6
:1032500043F8204C51F81C4C43F81C4C51F8184CC6
:1032600043F8184C51F8144C43F8144C51F8104CD6
:1032700043F8104C51F80C4C43F80C4C51F8084CE6
:1032800043F8084C51F8044C43F8044CD41A3F2C32
:10329000BBDC11E00C681033103143F8104C51F8CE
:1032A0000C4C43F80C4C51F8084C43F8084C51F8BE
:1032B000044C43F8044CD41A0F2CEBDC032C96DDA1
:1032C0001C1D0D1D55F8047C161B2346294604348D
:1032D0000435032E44F8087CF4DC88E7704700BF0F
:1032E000704700BF38B549F2C414C1F6FF740546F3
:1032F000084600232360FDF77DF9431C00D038BD4C
:103300002368002BFBD02B6038BD00BF2DE9F041B6
:1033100043F60014C0F2000484B007462568AC6C84
:10332000002C42D066681F2E1ADD42F6B134C0F27E
:10333000000424B94FF0FF3004B0BDE8F0818C20C8
:10334000039102920193FFF733FC0399029A019BC8
:1033500004460028EED0A86C002684E84100AC6446
:10336000DFB1D4F8886026B3D6F800816568012003
:10337000022F05F1200C00FA05F046F8252048EA56
:10338000000246F82C3008BFD6F80431C6F80021F8
:1033900004BF1843C6F8040100E06568AB1C0020B8
:1033A0000135656044F82310C6E705F14C04AC64B0
:1033B000B8E742F6B130C0F200000028BAD04FF4AE
:1033C0008470039102920193FFF7F2FB0399029A32
:1033D000019B06460028ADD00020C6F80001C6F8C3
:1033E00004018046C4F88860C0E700BFF8B548F61D
:1033F0005414C1F6FF740F460546FFF76FFFA3682C
:103400005E6826F0030606F6EF73DF1B3F0B013FF5
:103410003F03B7F5805F07DB00212846FFF762FF17
:10342000A3689B19984204D02846FFF759FF002053
:10343000F8BD79422846FFF755FF013010D049F218
:103440008813A168C1F6FF73F61B284646F00106F3
:103450001A684E60D71B1F60FFF742FF0120F8BDBE
:1034600000212846FFF73EFFA368C21A0F2ADBDDC2
:1034700048F65C5449F28811C1F6FF74C1F6FF7139
:1034800042F001025A602368C01A0860CCE700BF0E
:103490002DE9F0410E46804600295CD0FFF71EFF63
:1034A00048F6541556F8041CC1F6FF75A6F1080439
:1034B00021F00103AF68E2189742506820F0030042
:1034C00067D011F00101506035D0002116187668E0
:1034D00016F0010F06D11B18906800294DD0D26854
:1034E000C260906043F00102E3506260F1B9B3F54D
:1034F000007F32D35A0A042A6CD898093830410028
:1035000005EB810548F65411C1F6FF71AA68AA427D
:103510006BD0516821F003018B4202D29268954230
:10352000F7D1D368E360A260D4609C604046BDE8F8
:10353000F041FFF7D5BE56F8086C05F1080CA41B46
:103540009B19A668664543D0D4F80CC0C6F80CC0D9
:10355000CCF80860BAE7BDE8F081DB0801216868B3
:1035600005EBC3029B1001FA03F3E2609168184374
:103570006860A160CC609460D8E7294EB042AED1BB
:103580006C6143F001022C61E060A0606260E35076
:10359000CCE7C018CB0707D456F8083CE41AC0188B
:1035A000A268E368D3609A6048F6605240F0010375
:1035B000C1F6FF726360AC6013689842B6D349F2FB
:1035C00084134046C1F6FF731968FFF70FFFADE79C
:1035D00001217BE702F15B004100142A90D9542AB3
:1035E0000CD8180B6E3041008AE701264D68801018
:1035F000134606FA00F005434D6093E7B2F5AA7F43
:1036000003D8D80B773041007AE740F254518A4210
:1036100003D8980C7C30410072E7FC217E206FE7D4
:103620005C89FF1F4008FE4340A004404408FE435D
:1036300044A004400018FE4300C004403000FE4394
:10364000309004403400FE43349004401C18FE4384
:103650001CC004401018FE4310C004400818FE436C
:1036600008C004400C18FE430CC004400C10FE437C
:103670000CB004401010FE4310B004401810FE437C
:1036800018B004401C10FE431CB004401410FE434C
:1036900014B004400418FE4304C004400010FE436C
:1036A00000B004400008FE4300A004400408FE43AC
:1036B00004A004400C08FE430CA004400808FE438C
:1036C00008A004401418FE4314C004401818FE4318
:1036D00018C004400410FE4304B004400810FE4328
:1036E00008B004401400FE43149004404C08FE430C
:1036F0004CA004400420FE4304D004402410FE43A8
:1037000024B004402010FE4320B004402810FE43A3
:1037100028B004402C10FE432CB004400020FE438F
:1037200000D004404808FE4348A004401000FE4377
:1037300010900440151915190000FFFF000100004A
:103740006C87FF1F12000000000200009687FF1F19
:103750004900000000220100DF87FF1F2100000058
:1037600000210100C887FF1F09000000002200009F
:103770000088FF1F1C00000000210000A887FF1F19
:1037800009000000000300004288FF1F0000000045
:10379000010309047E87FF1F0000000002030904E3
:1037A0001C88FF1F00000000030309044688FF1F58
:1037B0000000000000000000000000000000000009
:1037C000000000000000000059230000F523000065
:1037D00095230000A9230000D123000091230000BD
:1037E000000000000000000081260000A526000067
:1037F000C9260000C1260000C5260000BD26000025
:10380000D7260000E9260000D3260000CD260000C0
:10381000B9260000B526000045260000512600000C
:103820005D260000692600008D2600007526000038
:10383000000000000000000065270000892700004C
:10384000AD270000A5270000A9270000A127000040
:10385000BB270000CD270000B7270000B1270000DC
:103860009D27000099270000292700003527000028
:10387000412700004D270000712700005927000054
:103880000000000000000000492800006D28000032
:1038900091280000892800008D280000852800005C
:1038A0009F280000B12800009B28000095280000F8
:1038B000812800007D2800000D2800001928000044
:1038C0002528000031280000552800003D28000070
:1038D0000000000000000000F128000000000000CF
:1038E0000000000000000000C52A0000BD2A000002
:1038F000D72A0000D32A0000CF2A0000CB2A0000DC
:103900006488FF1F4300000000000000000000006A
:1039100000000000000000000000000000000000A7
:103920000000000000000000000000000000000097
:103930000000000000000000000000000000000087
:103940000000000000000000000000000000000077
:103950000000000000000000000000000000000067
:103960000000000000000000F8B500BFF8BC08BC73
:103970009E46704799040000C52500000D270000F1
:10398000F1270000D5280000352900009D2A0000FD
:04399000DD2A00002C
:10399400000000000A040000C891FF1F1201000289
:1039A40000000040C0168604000101020301180350
:1039B4005400650065006E007300790064007500B2
:1039C40069006E006F0009024900020100C032095B
:1039D4000400000203000000092111010001221C5F
:1039E40000070583034000010705040340000109A3
:1039F4000401000203000000092111010001222139
:103A040000070581034000010705020320000206A8
:103A1400C9FF0904A15C7508150026FF009540093B
:103A240075810295200976910295040976B102C048
:103A340006ABFF0A0002A1017508150026FF0095D8
:103A44004009018102954009029102C026035400F5
:103A5400650065006E0073007900640075006900FC
:103A64006E006F002000520061007700480049009A
:103A74004400040309040C030000000000000000DB
:103A8400000000000000000000000000FFFFFFFF36
:103A94006488FF1F00000000483900002839000036
:103AA40008390000000000000000000000000000D1
:103AB40000000000043900000000000000000000C5
:103AC40000000000000000000000000000000000F2
:103AD40000000000000000000000000000000000E2
:103AE40000000000000000000000000000000000D2
:103AF40000000000000000000000000000000000C2
:103B040000000000000000000000000000000000B1
:103B140000000000000000000000000000000000A1
:103B24000000000000000000000000000000000091
:103B34000000000000000000000000000000000081
:103B44000000000000000000000000000000000071
:103B54000000000000000000000000000000000061
:103B64000000000000000000000000000000000051
:103B74000000000000000000000000000000000041
:103B84000000000000000000000000005489FF1F36
:103B94005489FF1F5C89FF1F5C89FF1F6489FF1F15
:103BA4006489FF1F6C89FF1F6C89FF1F7489FF1FC5
:103BB4007489FF1F7C89FF1F7C89FF1F8489FF1F75
:103BC4008489FF1F8C89FF1F8C89FF1F9489FF1F25
:103BD4009489FF1F9C89FF1F9C89FF1FA489FF1FD5
:103BE400A489FF1FAC89FF1FAC89FF1FB489FF1F85
:103BF400B489FF1FBC89FF1FBC89FF1FC489FF1F35
:103C0400C489FF1FCC89FF1FCC89FF1FD489FF1FE4
:103C1400D489FF1FDC89FF1FDC89FF1FE489FF1F94
:103C2400E489FF1FEC89FF1FEC89FF1FF489FF1F44
:103C3400F489FF1FFC89FF1FFC89FF1F048AFF1FF3
:103C4400048AFF1F0C8AFF1F0C8AFF1F148AFF1FA0
:103C5400148AFF1F1C8AFF1F1C8AFF1F248AFF1F50
:103C6400248AFF1F2C8AFF1F2C8AFF1F348AFF1F00
:103C7400348AFF1F3C8AFF1F3C8AFF1F448AFF1FB0
:103C8400448AFF1F4C8AFF1F4C8AFF1F548AFF1F60
:103C9400548AFF1F5C8AFF1F5C8AFF1F648AFF1F10
:103CA400648AFF1F6C8AFF1F6C8AFF1F748AFF1FC0
:103CB400748AFF1F7C8AFF1F7C8AFF1F848AFF1F70
:103CC400848AFF1F8C8AFF1F8C8AFF1F948AFF1F20
:103CD400948AFF1F9C8AFF1F9C8AFF1FA48AFF1FD0
:103CE400A48AFF1FAC8AFF1FAC8AFF1FB48AFF1F80
:103CF400B48AFF1FBC8AFF1FBC8AFF1FC48AFF1F30
:103D0400C48AFF1FCC8AFF1FCC8AFF1FD48AFF1FDF
:103D1400D48AFF1FDC8AFF1FDC8AFF1FE48AFF1F8F
:103D2400E48AFF1FEC8AFF1FEC8AFF1FF48AFF1F3F
:103D3400F48AFF1FFC8AFF1FFC8AFF1F048BFF1FEE
:103D4400048BFF1F0C8BFF1F0C8BFF1F148BFF1F9B
:103D5400148BFF1F1C8BFF1F1C8BFF1F248BFF1F4B
:103D6400248BFF1F2C8BFF1F2C8BFF1F348BFF1FFB
:103D7400348BFF1F3C8BFF1F3C8BFF1F448BFF1FAB
:103D8400448BFF1F4C8BFF1F4C8BFF1F548BFF1F5B
:103D9400548BFF1F5C8BFF1F5C8BFF1F648BFF1F0B
:103DA400648BFF1F6C8BFF1F6C8BFF1F748BFF1FBB
:103DB400748BFF1F7C8BFF1F7C8BFF1F848BFF1F6B
:103DC400848BFF1F8C8BFF1F8C8BFF1F948BFF1F1B
:103DD400948BFF1F9C8BFF1F9C8BFF1FA48BFF1FCB
:103DE400A48BFF1FAC8BFF1FAC8BFF1FB48BFF1F7B
:103DF400B48BFF1FBC8BFF1FBC8BFF1FC48BFF1F2B
:103E0400C48BFF1FCC8BFF1FCC8BFF1FD48BFF1FDA
:103E1400D48BFF1FDC8BFF1FDC8BFF1FE48BFF1F8A
:103E2400E48BFF1FEC8BFF1FEC8BFF1FF48BFF1F3A
:103E3400F48BFF1FFC8BFF1FFC8BFF1F048CFF1FE9
:103E4400048CFF1F0C8CFF1F0C8CFF1F148CFF1F96
:103E5400148CFF1F1C8CFF1F1C8CFF1F248CFF1F46
:103E6400248CFF1F2C8CFF1F2C8CFF1F348CFF1FF6
:103E7400348CFF1F3C8CFF1F3C8CFF1F448CFF1FA6
:103E8400448CFF1F4C8CFF1F4C8CFF1F548CFF1F56
:103E9400548CFF1F5C8CFF1F5C8CFF1F648CFF1F06
:103EA400648CFF1F6C8CFF1F6C8CFF1F748CFF1FB6
:103EB400748CFF1F7C8CFF1F7C8CFF1F848CFF1F66
:103EC400848CFF1F8C8CFF1F8C8CFF1F948CFF1F16
:103ED400948CFF1F9C8CFF1F9C8CFF1FA48CFF1FC6
:103EE400A48CFF1FAC8CFF1FAC8CFF1FB48CFF1F76
:103EF400B48CFF1FBC8CFF1FBC8CFF1FC48CFF1F26
:103F0400C48CFF1FCC8CFF1FCC8CFF1FD48CFF1FD5
:103F1400D48CFF1FDC8CFF1FDC8CFF1FE48CFF1F85
:103F2400E48CFF1FEC8CFF1FEC8CFF1FF48CFF1F35
:103F3400F48CFF1FFC8CFF1FFC8CFF1F048DFF1FE4
:103F4400048DFF1F0C8DFF1F0C8DFF1F148DFF1F91
:103F5400148DFF1F1C8DFF1F1C8DFF1F248DFF1F41
:103F6400248DFF1F2C8DFF1F2C8DFF1F348DFF1FF1
:103F7400348DFF1F3C8DFF1F3C8DFF1F448DFF1FA1
:103F8400448DFF1F4C8DFF1F4C8DFF1FFFFFFFFF54
:043F94000000020027
:00000001FF
