:1000000000800020BD010000DD050000DD050000CE
:10001000DD050000DD050000DD050000A90500008C
:10002000A9050000A9050000A9050000DD050000E4
:10003000DD050000A9050000DD05000099050000B0
:10004000DD050000DD050000DD050000DD05000028
:10005000DD050000DD050000DD050000DD05000018
:10006000DD050000DD050000DD050000DD05000008
:10007000DD050000DD050000DD050000DD050000F8
:10008000DD050000DD050000DD050000DD050000E8
:10009000DD050000DD050000DD050000DD050000D8
:1000A000F93E0000ED3E0000DD050000DD0500002A
:1000B000DD050000DD050000DD050000DD050000B8
:1000C000DD050000DD050000DD050000DD050000A8
:1000D000DD050000DD050000DD050000DD05000098
:1000E000DD050000DD050000DD050000DD05000088
:1000F000DD050000B90E0000DD050000351300002D
:10010000DD050000E5160000DD050000DD0500004E
:10011000DD050000DD050000DD050000DD05000057
:10012000DD050000DD050000DD050000DD05000047
:10013000DD050000DD050000DD050000DD05000037
:10014000DD050000DD050000DD050000DD05000027
:10015000695200008152000099520000B152000023
:10016000DD0500009D190000DD050000DD05000033
:10017000DD050000DD050000DD050000DD050000F7
:10018000DD050000DD050000DD050000DD050000E7
:10019000DD050000DD050000DD0500003907000079
:1001A0008907000011080000CD0800005109000077
:1001B000DD050000DD050000054E0000544B4CF24B
:1001C000205210B51A804DF628121A8000BF00BFC9
:1001D00000F008FA4F4B4FF010621A604E4A9A60D6
:1001E0004E4ADA604E4B1A6812F4807204D14D49BF
:1001F0000A604FF4A8521A604B4B1A7802F00802BA
:10020000D2B21AB11A7842F008021A70474B484825
:10021000484C2A221A700023474A02E01959995083
:10022000043399188142F9D3444B454A002101E037
:1002300043F8041B9342FBD34249434800231A5816
:100240005A500433B3F5DE7FF9D1404B404A802148
:1002500003F8011B9342FBD13A4A3E4B1A603E4BD6
:100260000A221A703D4B24221A70A02203F8012C96
:100270003B4A137803F00203DBB2002BF9D0384A73
:10028000137803F01003DBB2002BF9D1344A137852
:1002900003F00C03082BFAD1324B03221A704022D0
:1002A0005A702F4A137803F02003DBB2002BF9D0E9
:1002B0002B4A137803F04003DBB2002BF9D02A4B12
:1002C0002A4A1A6002225A60294B20221A70244AB4
:1002D000137803F00C030C2BFAD1264A264B1A6034
:1002E000264B274A1A60072243F8042C62B600F016
:1002F000D3FB0C4B1B68DC0702D5224800F040FB07
:1003000006F04EFD00F074F904F0C2F8FEE700BFFD
:100310000E20054030800440823F04000100002B85
:1003200010D0034014D0034002D0074000E0074043
:10033000FC91FF1FB87D00006087FF1FFC91FF1F2D
:100340001498FF1F0082FF1F0000000000E400E07F
:100350005FE400E008ED00E0005006400140064088
:10036000064006400440064044800440000003016B
:1003700000400640C01005000480044014E000E086
:10038000FF76010000DD6850FFFFFFFFFFFFFFFF6A
:10039000FFFFFFFFFFFFFFFFFFFFFFFFFFFFFFFF6D
:1003A000FFFFFFFFFFFFFFFFFFFFFFFFFFFFFFFF5D
:1003B000FFFFFFFFFFFFFFFFFFFFFFFFFFFFFFFF4D
:1003C000FFFFFFFFFFFFFFFFFFFFFFFFFFFFFFFF3D
:1003D000FFFFFFFFFFFFFFFFFFFFFFFFFFFFFFFF2D
:1003E000FFFFFFFFFFFFFFFFFFFFFFFFFFFFFFFF1D
:1003F000FFFFFFFFFFFFFFFFFFFFFFFFFFFFFFFF0D
:10040000FFFFFFFFFFFFFFFFFFFFFFFFFEFFFFFFFD
:1004100008B549F2FC10074BC1F6FF701B1A062BFA
:1004200000D808BD40F20003C0F20003002BF8D052
:100430009847F6E7FF91FF1F08B549F2FC1049F213
:10044000FC13C1F6FF70C1F6FF731B1A9B1003EB80
:10045000D373591000D108BD40F20002C0F200026F
:10046000002AF8D09047F6E710B549F2FC14C1F61F
:10047000FF74237873B9FFF7CBFF40F20003C0F29B
:1004800000032BB147F6B850C0F20000AFF3008074
:100490000123237010BD00BF08B540F20003C0F275
:1004A00000034BB147F6B85049F20021C0F20000FA
:1004B000C1F6FF71AFF3008049F2FC10C1F6FF7086
:1004C00003682BB140F20003C0F2000303B1984768
:1004D000BDE80840FFF7B0BF224B60221A70E1224E
:1004E0005A70214B214A1978214B082901D1012149
:1004F00002E00A2907D13921116013221A601D4B2D
:1005000019605A600BE00C291A4901D1352000E02E
:100510003D20106012221A60174B08601A60174BBA
:1005200017491B78174A03B101230B601360164B60
:10053000164A1978164B012901D880210CE00429AC
:1005400001D8842108E0082901D8852104E0102978
:1005500001D8862100E08721116019600D4B01222E
:100560001A707047004007406487FF1F08B00340BF
:100570000CB0034008B00B400CB00B401992FF1FA9
:1005800020B0034020B00B406587FF1F24B003401C
:1005900024B00B401892FF1F024B1A6801321A60F8
:1005A000704700BFA492FF1F38B50B4C2546236847
:1005B000580301D501F0F2F92B68590501D500F077
:1005C0007BFC2B681A0501D500F0B4FE2368DB0420
:1005D000EDD501F087F8EAE73480044008B5FFF76D
:1005E000E3FFFFFF014B10221A80704700200540F7
:1005F0007047FFFF024A13681818106018467047CA
:100600006887FF1FEFF313839BB9EFF3108098B94E
:10061000EFF3058323B10F2B04D9084A985C01E05E
:100620004FF48070EFF311833BB1984228BF184616
:1006300070474FF0FF30704718467047F0E300E016
:10064000002300E00133C25C002AFBD1184670474A
:1006500010B50023B0FBF2F402FB1400092801D806
:10066000303000E03730C85420460CB10133F1E798
:10067000CA185470224605E0885CCC5C8C54C8547F
:100680000132013B9A42F7DB084610BD084B4FF49C
:1006900000021A604FF080721A604FF000721A6008
:1006A0004FF080621A604FF000621A60704700BF1E
:1006B00008E100E0212830B521D8042A1FD8DFE85E
:1006C00002F00709050B03000B2306E00A2304E0F0
:1006D000082302E00C2300E00923094A02EBC002D0
:1006E000526872B61468074D24F47024146044F004
:1006F000807444EA034345F82010136062B630BDAD
:10070000C47700001C92FF1F094B03EBC0035B681A
:1007100072B61A6822F0877222F4803242F0807238
:100720001A60044B002243F8202062B6704700BFD5
:10073000C47700001C92FF1F114B10B51C68E00429
:100740001C6004D50F4BDA680AB1DB689847A10436
:1007500004D50C4B1A690AB11B699847A20604D547
:10076000084B1A6E0AB11B6E9847E30606D5054B77
:10077000D3F8842012B1D3F88430984710BD00BF5D
:10078000A09004401C92FF1F1F4B10B51C68E00393
:100790001C6004D51D4B1A680AB11B689847A10359
:1007A00004D51A4B5A680AB15B689847E20704D52A
:1007B000164B1A6C0AB11B6C9847A30704D5134B50
:1007C0005A6C0AB15B6C9847200704D50F4B9A6CA2
:1007D0000AB19B6C9847610704D50C4BDA6C0AB1DF
:1007E000DB6C9847220304D5084B5A6E0AB15B6E46
:1007F0009847630306D5054BD3F8802012B1D3F890
:100800008030984710BD00BFA0A004401C92FF1F7D
:100810002C4B10B51C6820071C6004D52A4B5A6A63
:100820000AB15B6A9847E10604D5274B9A6A0AB178
:100830009B6A9847620604D5234BDA6A0AB1DB6AE1
:100840009847230604D5204B1A6B0AB11B6B9847B7
:10085000A00604D51C4B5A6B0AB15B6B9847E107A5
:1008600004D5194BDA6B0AB1DB6B9847A20704D5A4
:10087000154B9A6D0AB19B6D9847630704D5124BCF
:10088000DA6D0AB1DB6D9847A00504D50E4BDA6E20
:100890000AB1DB6E9847E10504D50B4B1A6F0AB11C
:1008A0001B6F9847620504D5074B5A6F0AB15B6FFF
:1008B0009847230504D5044B9A6F0AB19B6F98475C
:1008C00010BD00BFA0B004401C92FF1F1E4B10B50E
:1008D0001C68E0071C6004D51C4B9A680AB19B6831
:1008E0009847210604D5194B5A690AB15B699847A4
:1008F000E20604D5154B9A690AB19B6998476307CC
:1009000004D5124BDA690AB1DB699847200704D590
:100910000E4B1A6A0AB11B6A9847A10704D50B4B04
:100920009A6B0AB19B6B9847A20604D5074B1A6DC8
:100930000AB11B6D9847630604D5044B5A6D0AB182
:100940005B6D984710BD00BFA0C004401C92FF1F04
:10095000094B10B51C68A2071C6004D5074B9A6EA2
:100960000AB19B6E9847E30704D5044BDA6F0AB1CE
:10097000DB6F984710BD00BFA0D004401C92FF1F42
:10098000044B054900221A600A60044A10601022D4
:100990001A60704714D0034004D0034000D00340D5
:1009A000212810B518D80D4A52F8303093F88042FB
:1009B0003CB1012211B183F8802010BD83F80021E1
:1009C00010BD02EBC00043681A6811B142F0030287
:1009D00001E022F002021A6010BD00BFC4770000DF
:1009E000212805D8034B53F8303093F800027047A4
:1009F00000207047C4770000212816D80B4A02EB6C
:100A0000C00301295B6852F8302004D182F88012BB
:100A10004FF4A27208E0002082F8800211B94FF46E
:100A2000807201E040F203121A607047C477000040
:100A300072B60B4B0B491A680B4B1B68096862B600
:100A4000490102D5322A88BF0133C2F5BB32FF32D9
:100A50006021B2FBF1F24FF47A7000FB0320704783
:100A600018E000E004ED00E0A492FF1F70B504461A
:100A7000FFF7DEFF05466CB140F2E736FFF7D8FF1F
:100A8000401BB04203D9013C04D005F57A7504F04F
:100A900061FDF3E770BDFFFF10B5FFF7F7FD164BE3
:100AA000164A174C00204BF6FF7118605960282336
:100AB0001360936013619361136293621363936392
:100AC000092222600F4C20606160A360236144F81A
:100AD000042C0D4C20600D4801600D490B608B60AB
:100AE0000C4B1A60FFF7F8FC0420FFF7BFFFBDE8CE
:100AF000104001F06FBA00BF048003400C80034037
:100B0000008003400490034004800B4008800B40A9
:100B10000C800B4000800B40194B1A6842F4806235
:100B20001A60184A00231370174A1370174A13707B
:100B3000174A1370174A1370174B40F213321A609A
:100B40004FF451725A60154BC0F344321A70C0F31F
:100B500047125A700221042200F01F0098729A7006
:100B6000D9745A7588221A743C22DA700C4B4022D0
:100B70006FF44A711A705B184FF400521A60704794
:100B8000348004402A93FF1FA992FF1F3093FF1F58
:100B90002B93FF1FA892FF1F40A0044000A0064017
:100BA0002DE400E0134A937800F0030103F0EC0316
:100BB0000B43410748BF43F01003937000F00F034D
:100BC000042B0C4903D18B7943F040038B7153798B
:100BD000C20603F0EF03074A48BF43F01003537106
:100BE0009379800603F0EF0348BF43F0100393713D
:100BF000704700BF00A006400E4B1B68580510B59B
:100C000003D410BD04F0A6FC00E00B4C2378002BAD
:100C1000F8D10A4A4FF400511160094A0949D370CA
:100C200040F203120A604A60074A1370074A1370C1
:100C300010BD00BF34800440A892FF1F84E100E093
:100C400000A0064040A004402A93FF1FA992FF1F66
:100C500038B5094B04461D78002DFCD120460121F2
:100C6000FFF7CAFE20462946FFF79AFE034B53F8CA
:100C70003420034B1A6038BDA892FF1FC4770000D0
:100C80002C93FF1F1D4B1B685A052DE9F0410746A9
:100C900031D51B4B1B680BB101221A70194B1A4D31
:100CA0001C781A4EDFF8688001343F2C88BF00247E
:100CB00014E0FFF7A7FC40280CDC33791B060DD5A8
:100CC0002B7801333F2B88BF002318F80320F271E3
:100CD0002B7003E0FF2801DD04F03CFC2B78A342DD
:100CE000E7D00B4B1F550B4B01221A70054B1C70A4
:100CF000064BBC22DA70BDE8F08100BF34800440AE
:100D00002C93FF1F3093FF1F2B93FF1F00A0064063
:100D1000AA92FF1FA892FF1F2DE9F84F254B1B68D1
:100D200006465805894642D5234B1B680BB1012264
:100D30001A70224DB346AA4632E0214B1C782F7818
:100D400001343F2C88BF0024A74209D01BF8012B97
:100D50001C4B1A551C4B01221A70194B1C701FE0BA
:100D60001A4BBC22DA709846FFF74CFC40280FDC87
:100D700098F8043019060FD52B78124A01333F2B0F
:100D800088BF0023D25C88F807208AF8003003E08F
:100D9000FF2801DD04F0DEFB2B78BB42E4D0D5E771
:100DA00006EB09039B45C8D3084BBC22DA70BDE8AB
:100DB000F88F00BF348004402C93FF1F2B93FF1F3C
:100DC0003093FF1FAA92FF1FA892FF1F00A00640AA
:100DD00010B5044C01E004F0BDFB2378002BFAD1E0
:100DE00010BD00BFA892FF1F054B064A1B78107864
:100DF000834201D33F3000E00138C01A704700BF82
:100E00003093FF1F2B93FF1F044B1878044B1B7864
:100E1000984238BF4030C01A704700BF2A93FF1F66
:100E2000A992FF1F084B094A19781378994207D0F5
:100E300001333F2B88BF00230549C85C13707047FE
:100E40004FF0FF30704700BF2A93FF1FA992FF1F8A
:100E5000EA92FF1F074B1A78074B1B789A4206D07D
:100E600001333F2B88BF0023044AD05C70474FF00A
:100E7000FF3070472A93FF1FA992FF1FEA92FF1FBE
:100E8000094B1B685B050ED5084BDA7802F0CB02E4
:100E9000DA7040225A74DA7842F03402DA70044B85
:100EA0001A78044B1A7070473480044000A0064042
:100EB000A992FF1F2A93FF1F70B52D4B1A7912F0CC
:100EC000300F1DD072B6997D21B9DA7940225A745B
:100ED00062B615E062B6274A27481278274D007897
:100EE0001C46531C3F2B88BF0023E67983421CBF5E
:100EF000EE541A46013911F0FF01F2D11D4B1A7060
:100F00001B4AD37819465BB2002B1BDA13791806FB
:100F100018D51B4B1B4C1D781B4B1B78AB4209D0C3
:100F200001333F2B88BF00231079E05CD071107D26
:100F30000728F3D9144A13700D4B1A79120601D5FC
:100F40007C22DA7001F04003DBB27BB1084B1A79E6
:100F500002F04002D2B2194642B10C4B00221A7084
:100F60000B4B1B6803B11A703C23CB7070BD00BFE4
:100F700000A006402A93FF1FA992FF1FEA92FF1FBD
:100F80003093FF1FAA92FF1F2B93FF1FA892FF1FF2
:100F90002C93FF1F184B1A6842F400621A60174A1C
:100FA00000231370164A1370164A1370164A1370F2
:100FB000164A1370164B40F213321A604FF45172F6
:100FC0005A60144BC0F344321A70C0F347125A707F
:100FD00000F01F000422022198729A70D9745A7589
:100FE00088221A743C22DA700B4B40221A700B4B89
:100FF0004FF400421A607047348004409B93FF1FF7
:101000003293FF1FA493FF1F9C93FF1F3193FF1F79
:101010000CB0044000B006402FE400E004E100E022
:10102000134A937800F0030103F0EC030B434107EC
:1010300048BF43F01003937000F00F03042B0C49DA
:1010400003D18B7943F040038B715379C20603F0CF
:10105000EF03074A48BF43F01003537193798106A9
:1010600003F0EF0348BF43F010039371704700BFD4
:1010700000B006400E4B1B68180510B503D410BD18
:1010800004F068FA00E00B4C2378002BF8D10A4AF0
:101090004FF400411160094A0949D37040F203122C
:1010A0000A604A60074A1370074A137010BD00BFF8
:1010B000348004403193FF1F84E100E000B006401B
:1010C0000CB004409B93FF1F3293FF1F38B5094BB0
:1010D00004461D78002DFCD120460121FFF78CFC31
:1010E00020462946FFF75CFC034B53F83420034BA2
:1010F0001A6038BD3193FF1FC4770000A093FF1F13
:101100001D4B1B681A052DE9F041074631D51B4BD5
:101110001B680BB101221A70194B1A4D1C781A4E1C
:10112000DFF868800134272C88BF002414E0FFF723
:1011300069FA40280CDC33791B060DD52B78013376
:10114000272B88BF002318F80320F2712B7003E0CF
:10115000FF2801DD04F0FEF92B78A342E7D00B4B0A
:101160001F550B4B01221A70054B1C70064BBC22FD
:10117000DA70BDE8F08100BF34800440A093FF1F07
:10118000A493FF1F9C93FF1F00B006403393FF1FE3
:101190003193FF1F2DE9F84F254B1B6806461805B4
:1011A000894642D5234B1B680BB101221A70224D90
:1011B000B346AA4632E0214B1C782F780134272C05
:1011C00088BF0024A74209D01BF8012B1C4B1A55DD
:1011D0001C4B01221A70194B1C701FE01A4BBC22C9
:1011E000DA709846FFF70EFA40280FDC98F80430C2
:1011F00019060FD52B78124A0133272B88BF0023FD
:10120000D25C88F807208AF8003003E0FF2801DD6F
:1012100004F0A0F92B78BB42E4D0D5E706EB090334
:101220009B45C8D3084BBC22DA70BDE8F88F00BFDD
:1012300034800440A093FF1F9C93FF1FA493FF1FC3
:101240003393FF1F3193FF1F00B0064010B5044CCD
:1012500001E004F07FF92378002BFAD110BD00BF24
:101260003193FF1F054B064A1B781078834201D348
:10127000273000E00138C01A704700BFA493FF1F59
:101280009C93FF1F044B1878044B1B78984238BF7F
:101290004030C01A704700BF9B93FF1F3293FF1F5F
:1012A000084B094A19781378994207D001333F2B2C
:1012B00088BF00230549C85C137070474FF0FF30AA
:1012C000704700BF9B93FF1F3293FF1F5B93FF1F6D
:1012D000074B1A78074B1B789A4206D001333F2BF5
:1012E00088BF0023044AD05C70474FF0FF3070473E
:1012F0009B93FF1F3293FF1F5B93FF1F094B1B68DC
:101300001B050ED5084BDA7802F0CB02DA704022CA
:101310005A74DA7842F03402DA70044B1A78044BCB
:101320001A7070473480044000B006403293FF1FAB
:101330009B93FF1F70B52D4B1A7912F0300F1DD003
:1013400072B6997D21B9DA7940225A7462B615E0F5
:1013500062B6274A27481278274D00781C46531C4E
:101360003F2B88BF0023E67983421CBFEE541A4608
:10137000013911F0FF01F2D11D4B1A701B4AD378CD
:1013800019465BB2002B1BDA1379180618D51B4BD4
:101390001B4C1D781B4B1B78AB4209D00133272B0C
:1013A00088BF00231079E05CD071107D0728F3D945
:1013B000144A13700D4B1A79120601D57C22DA708B
:1013C00001F04003DBB27BB1084B1A7902F0400216
:1013D000D2B2194642B10C4B00221A700B4B1B685B
:1013E00003B11A703C23CB7070BD00BF00B0064043
:1013F0009B93FF1F3293FF1F5B93FF1FA493FF1F5D
:101400003393FF1F9C93FF1F3193FF1FA093FF1F78
:10141000174B1A6842F480521A60164A0023137060
:10142000154A1370154A1370154A1370154A137034
:10143000154A40F2133111604FF451715160134A53
:10144000C0F344311170C0F3471100F01F00517018
:101450009072937013742C23D3700D4B40226FF451
:101460004B711A705B184FF400321A60704700BF5E
:10147000348004400F94FF1FA693FF1F1894FF1F92
:101480001094FF1FA593FF1F08C0044000C0064032
:1014900031E400E0134A937800F0030103F0EC0319
:1014A0000B43410748BF43F01003937000F00F0354
:1014B000042B0C4903D18B7943F040038B71537992
:1014C000C20603F0EF03074A48BF43F0100353710D
:1014D0009379800603F0EF0348BF43F01003937144
:1014E000704700BF00C006400E4B1B68D80410B503
:1014F00003D410BD04F02EF800E00B4C2378002B31
:10150000F8D10A4A4FF400311160094A0949D370F1
:1015100040F203120A604A60074A1370074A1370C8
:1015200010BD00BF34800440A593FF1F84E100E09C
:1015300000C0064008C004400F94FF1FA693FF1F81
:1015400038B5094B04461D78002DFCD120460121F9
:10155000FFF752FA20462946FFF722FA034B53F8C9
:101560003420034B1A6038BDA593FF1FC4770000D9
:101570001494FF1F1D4B1B68DA042DE9F041074648
:1015800031D51B4B1B680BB101221A70194B1A4D38
:101590001C781A4EDFF868800134272C88BF00249D
:1015A00014E0FFF72FF840280CDC33791B060DD52B
:1015B0002B780133272B88BF002318F80320F27102
:1015C0002B7003E0FF2801DD03F0C4FF2B78A3425A
:1015D000E7D00B4B1F550B4B01221A70054B1C70AB
:1015E000064BAC22DA70BDE8F08100BF34800440C5
:1015F0001494FF1F1894FF1F1094FF1F00C0064093
:10160000A793FF1FA593FF1F38B54518044603E0B5
:1016100014F8010BFFF7AEFFAC42F9D138BDFFFF64
:1016200010B5044C01E003F095FF2378002BFAD1AC
:1016300010BD00BFA593FF1F054B064A1B7810780D
:10164000834201D3273000E00138C01A704700BF41
:101650001894FF1F1094FF1F044B1878044B1B783D
:10166000984238BF4030C01A704700BF0F94FF1F28
:10167000A693FF1F084B094A19781378994207D09F
:1016800001333F2B88BF00230549C85C13707047A6
:101690004FF0FF30704700BF0F94FF1FA693FF1F4E
:1016A000CF93FF1F074B1A78074B1B789A4206D03F
:1016B00001333F2B88BF0023044AD05C70474FF0B2
:1016C000FF3070470F94FF1FA693FF1FCF93FF1F9C
:1016D000024B1A78024B1A70704700BFA693FF1F87
:1016E0000F94FF1F10B5214B1A7902F02002D2B2DD
:1016F0006AB11F4AD8791F491378097801333F2B03
:1017000088BF00238B4202D01B49C8541370174A6C
:10171000D37818465BB2002B13DA1379190610D56B
:10172000164B17491C780B789C4202D16C23D3705E
:1017300007E00133272B88BF0023124CE45CD471EF
:101740000B7000F04003DBB27BB1084B1A7902F05A
:101750004002D2B2194642B10B4B00221A700B4B19
:101760001B6803B11A702C23CB7010BD00C006405B
:101770000F94FF1FA693FF1FCF93FF1F1894FF1F07
:101780001094FF1FA793FF1FA593FF1F1494FF1F23
:101790001FB572B6154B70221A70154A412111708F
:1017A0000F2102F8011C80221A701A781206FCD54B
:1017B000104B186862B6104B984201D80A23584360
:1017C00001A90A22FEF744FF0C48002301AA9A5CF3
:1017D0002AB100EB430101330A2B4A80F6D10133D1
:1017E000064A5B00137005B000BD00BF0000024058
:1017F00007000240080002407F969800F487FF1F10
:10180000F0B50C4B0C4C1A7842F0020504EBC506FF
:1018100082F00102706009481A700678002E0CBF31
:101820008827C82747EA014186F0010644F83510A9
:101830000670F0BD8494FF1F0080FF1FFC94FF1F03
:10184000431E032B10B510D872B6094A52F8230074
:1018500048B1416842F82310064A018832F8134023
:10186000611A22F8131062B610BD002010BD00BF2F
:101870007494FF1F0098FF1F013803280BD872B61D
:10188000064B53F82030002001E05B680130002B4C
:10189000FBD162B670470020704700BFC894FF1F9D
:1018A00070B572B6184E194C01239A1912F8012C12
:1018B00002F00802D2B2E2B19900144A54F8315051
:1018C0002DB902EB431308305860114B09E041F089
:1018D000010154F8315065B902EBC103083058607A
:1018E0000C4B42F831300C4B1A78013A1A7062B640
:1018F00070BD0133052BD8D162B6074B00221A7098
:10190000BDE8704000F0D2BBD47800000080FF1F1B
:1019100088004000C8004000F294FF1F431E032BC4
:1019200030B532D84001194A40F01000101872B694
:10193000174CE25C032A09D8DFE802F0160218050A
:101940000830022213E00830042210E01148124A45
:1019500050F8234014B940F8231002E052F8230055
:10196000416042F823100FE0032200E00522E25418
:1019700010F0080F01F108030A8843600CBF8823A8
:10198000C82343EA0243036062B630BD0080FF1FF4
:101990003094FF1FC894FF1FD894FF1F2DE9F74F05
:1019A000A54EA64C357805F00403DBB2ABB1A44BD1
:1019B0001B7883B1A34A137823B1013BDBB21370C8
:1019C00003B900BEA04A13782BB1013BDBB2137000
:1019D0000BB900F07FFC0423337005F00802D2B28B
:1019E000002A00F08082994B1B781D094FEA930969
:1019F00040F0FE8104EBC903586854F83930C3F352
:101A00008303013B0C2B00F2F081DFE813F0A90106
:101A1000A901EE01EE01EE01EE01EE01EE01C501BC
:101A2000EE01EE01EE010D004368894902684B604A
:101A3000884B894844F83930884D0A600023036098
:101A40000120287092B240F28165AA422361A3610D
:101A500017D8B2F5D06F80F02C81B2F5817F00F0FD
:101A6000DC8006D8802A00F0C280822A40F03D81C6
:101A7000C1E040F202339A4200F00C81B2F5A06F4F
:101A800016E042F22105AA4200F0678108D8B2F5BB
:101A9000086F00F0A680B2F5106F40F026810AE0D2
:101AA00042F22120824200F01C8142F221339A420C
:101AB00040F01B811DE18A78614B604D1A702B6AE2
:101AC000180603D5686A083800F0F0FA644A083549
:101AD0009542F4D1DFF8B091DFF8B0B10025A84607
:101AE000CA4655F8090005E04368009300F0DEFAA5
:101AF000009B18460028F7D15A4B4AF8050045F8D4
:101B00000B00E85807E042680093019200F0CEFA1B
:101B1000019A009B10460028F5D15851524BE850CD
:101B2000524B23F81800524B18F80320023A032AAC
:101B300008D8DFE802F002040204002200E00122DB
:101B400003F8082008F101080435B8F1040FC8D1E2
:101B5000484BDFF83C9100221A7001259846464B0D
:101B600005EB0902EB1812F8012C9B001A7002F029
:101B70000802D2B23AB300F07BFAAB0038B104EB02
:101B80004512083050603D4A44F8332006E044F8DE
:101B9000330098F80030013388F8003000F068FA1C
:101BA000AB0043F0010338B104EBC30208305060CE
:101BB000284A44F8332006E044F8330098F800300F
:101BC000013388F80030AA0042F00201013542F0EA
:101BD00003020023052D44F8313044F83230BED1E1
:101BE00088E0174B264D1B782B70034685E0244D6B
:101BF0002B706B7080E08A88042A00D975E0204D34
:101C00002B706B701F4B9200D3181B7803F00203EC
:101C1000DBB2002B70D028706EE08A8802F07F0360
:101C2000042B62DC4B8803B15FE09100154A8A18EF
:101C3000117821F0020156E0802007400080FF1F4C
:101C4000FB94FF1F8594FF1FFD94FF1F902007400A
:101C5000E894FF1FC80040001C94FF1FFC94FF1F66
:101C60008080FF1FC894FF1FD894FF1F0098FF1F9C
:101C70003094FF1FF294FF1F30C80110880040000D
:101C8000F394FF1FC02007407494FF1F2094FF1F90
:101C9000D47800008A8802F07F03042B25DC4B886F
:101CA00003B122E09100A14A8A18117841F00201A3
:101CB00019E04A889E4B898853F8085CA3F10C0010
:101CC0009DB133F80CCC944509D133F80ACC8C453E
:101CD00005D1120A032A0CBF2B7803890DE00C33BF
:101CE000EAE78978934A117004E0904B0F221A704A
:101CF00033E000231D4600E002238F4AB2F806902D
:101D00004B4538BF9946B9F1400F34BFC8464FF034
:101D1000400828464146FFF773FDB9EB08094544E2
:101D200003D1B8F1400F07D017E0B9F1400F34BF2D
:101D3000C8464FF0400800E0C84628464146FFF735
:101D40005FFDB9EB0809454402D1B8F1400F04D159
:101D50007A4B7B4A1D60A2F800900122794B43E048
:101D6000754B1A8842F221039A4211D1764A002318
:101D7000C15C99540133072BFAD1734B1B68862B36
:101D800002D1724B0F221A7000200146FFF738FD76
:101D90006F4B44F8393028E0684BD3F80080B8F135
:101DA000000F18D0DFF89891B9F800A0BAF1400FF1
:101DB00034BF5546402540462946FFF721FDC5EB77
:101DC0000A039BB2A9F800300BB9402D01D108EBF2
:101DD00005035A4A1360584B1A88B2F5A06F04D114
:101DE00000225A709A785B4B1A700122554B6DE0B5
:101DF00004EBC90803F00803D8F80420013DD9B268
:101E0000A2F10800EDB2002937D000F04FF9524896
:101E1000524B50F82510F1B14A6840F8252001F1E5
:101E20000802C8F804205A5D032A0BD8DFE802F044
:101E300002040608032204E0022202E0052200E078
:101E400004225A5518F0080F0A880CBF8823C823AB
:101E500043EA024342E05A5D032A07D8DFE802F072
:101E600040400204002206E0012204E018F0080FBE
:101E70000CBF022203225A5532E054F839301B0CB1
:101E800022F8083C23B322F8061C42F8041C344A0A
:101E9000344952F8257017B942F8250002E051F88C
:101EA00025205060304A41F8250032F815105B18A3
:101EB00022F8153000F0DCF818B10830C8F804003A
:101EC00006E02A4B44F839001A7801321A7007E00C
:101ED0001F4B274A18F0080F08BF134644F8393043
:101EE000082333705EE5E90752D516492048214C96
:101EF00002230B70204B1A70204B1860986020480A
:101F00001A61D8609A615C60084B0D2018701D48FA
:101F1000FF23037000F8083C02741B4A13701B4B2C
:101F20009F221A7001230B704BE000BFC0200740B6
:101F3000E47800000C95FF1FE894FF1F1C94FF1F1E
:101F4000F094FF1F942007400898FF1F8594FF1FFF
:101F5000C800400098200740C894FF1F3094FF1F1E
:101F60007494FF1F2094FF1F0098FF1FF294FF1F1F
:101F7000880040003494FF1F8494FF1F0080FF1FDF
:101F80008894FF1F882007408C200740842007404A
:101F90002B0605D50C4B0D221A70802203F8402C1D
:101FA00005F00203DBB22BB1084B1A781A7002223B
:101FB00003F8082C05F01005EDB215B1044B102202
:101FC0001A70BDE8FE8F00BFC02007408820074080
:101FD0008020074008B5FFF7DBFB00231E491A46A7
:101FE0005A50C8180833882B4260F9D11B4B1A6825
:101FF00042F480221A601A4B80221A701978184A0B
:102000000906FBD4144B1749C3F307200870C3F328
:1020100007401B0E08750B76FF2301F81C3C01F8E6
:10202000143C01F88C3C137843F0400313700021FA
:10203000012302F8783C02F80C1C02F8883C0A4B99
:1020400070226FF4507C1A7063444FF400721A606F
:10205000064B10221A7008BD0080FF1F3480044018
:102060000C2107409C20074049E400E0082107407C
:1020700072B60C4A1168B1FA81F30B2B02D962B621
:10208000002070474FF0004020FA03F021EA0001E1
:10209000116062B6044948225343C8180022CA504E
:1020A000426070470C88FF1F0084FF1F0C4B4822C2
:1020B000C31AB3FBF2F30B2B11D80A4A127822B1E0
:1020C000094A12780AB1FFF7EBBB72B6074A4FF024
:1020D000004121FA03F311681943116062B6704799
:1020E0000084FF1FF294FF1FFB94FF1F0C88FF1F4B
:1020F00038B5114C23684BB10F4D286842888118C0
:1021000001320C7A01888A4212D30CE00B4B1B7807
:1021100013B94FF0FF340CE00320FFF791FB206070
:102120000028E9D1F5E7FFF7C1FF00232B6000E0AD
:102130004280204638BD00BF0895FF1FFB94FF1F5B
:1021400010B50C4C23681BB10A4B1B686BB902E03D
:10215000094B1B7813B94FF0FF3010BD0320FFF778
:102160006FFB20600028EFD1F5E75A889B18187A9A
:1021700010BD00BF0895FF1FFB94FF1F044B9888FC
:10218000044B1B681BB11A885B88D31AC0187047B0
:102190000098FF1F0895FF1F2DE9F8432D4B2E4D8A
:1021A000DFF8C08001220C461A7006464BE02B680F
:1021B0002BBBDFF8A0904AF2F92798F8003013B94A
:1021C000244A137014E00420FFF756FB072808D8B0
:1021D000012389F80030FFF74BFF286078B989F8B0
:1021E0000000013F1D4B01D01A782AB101221A705C
:1021F0004FF0FF30BDE8F88303F0ACF9DDE7296864
:10220000164A488800231370C0F14002944238BF38
:10221000224600F108078018CF194880A41A02E06E
:10222000F05CF85401339342FAD1F6184B883F2BF7
:1022300006D940230B800420FFF770FB00232B609E
:10224000074B05221A70002CB1D1024B20461C709E
:10225000BDE8F883FE94FF1F0095FF1F0495FF1F44
:10226000FD94FF1FFB94FF1F07B502AB012103F88C
:10227000010D1846FFF790FF0EBDFFFFF8B5114B9B
:102280001B78EBB1104E114B3468114D01271F70B4
:102290004CB1638800272F70042023802146FFF76C
:1022A0003DFB376009E0FFF7E3FE014620B1042063
:1022B0002C70FFF733FB00E02F70044B00221A70E4
:1022C000F8BD00BFFB94FF1F0095FF1FFE94FF1F8A
:1022D000FD94FF1F38B50D4B1D78ADB90C4C21682E
:1022E00031B14B8804200B80FFF718FB256038BD07
:1022F000FFF7BEFE014620B10420BDE83840FFF7DD
:102300000DBB044B01221A7038BD00BFFE94FF1FA5
:102310000095FF1FFD94FF1F70B502298CBF0D466D
:1023200003256B100446C3708570022128461646AB
:1023300004F0ECFC01216060284604F0E7FC012178
:10234000A060284604F0E2FC0023E060238208E05D
:10235000A168CB54E168CB54616821F81360013364
:10236000DBB2A2789A42F3D8204670BD2DE9F04145
:102370008368B0F910209C5C426822F81410002297
:102380004275B0F910209B5C43B9B0F91020836806
:102390009B5C8278013A934236D12DE0012627E0FA
:1023A000591E446889B234F912C034F811502FB262
:1023B000BC451ADA4582C5686D5C057534F8125063
:1023C00024F811508468B0F910506155C468058A2A
:1023D0006554448A416821F812408168047D0B5598
:1023E000047DC1688C54467500E00023013B9BB21C
:1023F0001AB2002AD4DCC8E7038A82780133038248
:102400001BB2934232DA33E0427D002AF4D127E056
:102410005E1C446831B234F9128034F811700FFA3E
:1024200087FCE04519DDC56847826D5C057534F8A9
:10243000125024F811508468B0F910506655C468E1
:10244000058A6554448A416821F812408168047DF8
:102450000B55047DC1688C5400E02B4601339BB2C0
:1024600085781AB2691E8A42D2DBC5E7002303824F
:10247000C278436833F91200BDE8F081C27843683E
:1024800033F91200704738B5044608460D46FEF78A
:10249000D7F8236802465B6820462946984738BD2E
:1024A00008B5FFF7F0FF08BD02F08CBF9DF80010E3
:1024B000009102F091BF08B50E200121FEF79CFAB1
:1024C0000E200121FEF76CFA0F200121FEF794FA8D
:1024D0000F200121BDE80840FEF762BA08B500F000
:1024E00089FC01460E2029B10121FEF759FA0F207F
:1024F000002103E0FEF754FA0F200121BDE8084057
:10250000FEF74EBA08B50F200021FEF749FA0E205B
:10251000FEF766FA10B10E20002101E00E20012125
:10252000FEF73EFA4FF4FA70BDE80840FEF79EBA97
:1025300030B5AF4CAF4987B02046FFF7B1FF002060
:1025400002F01CF9006803F081FD022502460B46EB
:1025500000952046FFF7AAFFA7492046FFF7A0FFF6
:10256000002002F00BF9406803F070FD0095024670
:102570000B462046FFF79AFFA0492046FFF790FF41
:10258000002002F0FBF8806803F060FD0095024631
:102590000B462046FFF78AFF99492046FFF780FF48
:1025A000284602F0EBF8006803F050FD0095024663
:1025B0000B462046FFF77AFF92492046FFF770FF4F
:1025C000032002F0DBF8006803F040FD00950246AE
:1025D0000B462046FFF76AFF8B492046FFF760FF56
:1025E000032002F0CBF8406803F030FD009502466E
:1025F0000B462046FFF75AFF84492046FFF750FF5D
:10260000032002F0BBF8806803F020FD009502462D
:102610000B462046FFF74AFF204602F08DFE7C491C
:102620002046FFF73DFF03A801F0E6FE039803F004
:102630000DFD009502460B462046FFF737FF754912
:102640002046FFF72DFF002002F098F8406A03F0C3
:10265000FDFC009502460B462046FFF727FF6E491A
:102660002046FFF71DFF002002F088F8C06A03F043
:10267000EDFC009502460B462046FFF717FF674921
:102680002046FFF70DFF002002F078F8006B03F002
:10269000DDFC009502460B462046FFF707FF604928
:1026A0002046FFF7FDFE002002F0F2F90146204629
:1026B000FFF7FAFE5B492046FFF7F2FE03A801F0A0
:1026C000A5FE039803F0C2FC009502460B46204687
:1026D000FFF7ECFE204602F02FFE53492046FFF79D
:1026E000DFFE03A801F088FE049803F0AFFC00951C
:1026F00002460B462046FFF7D9FE4C492046FFF71D
:10270000CFFE012002F03AF8406A03F09FFC0095EA
:1027100002460B462046FFF7C9FE45492046FFF713
:10272000BFFE012002F02AF8C06A03F08FFC00957A
:1027300002460B462046FFF7B9FE3E492046FFF70A
:10274000AFFE012002F01AF8006B03F07FFC009549
:1027500002460B462046FFF7A9FE37492046FFF701
:102760009FFE012002F094F901462046FFF79CFEEF
:1027700032492046FFF794FE03A801F047FE049873
:1027800003F064FC009502460B462046FFF78EFEE0
:10279000204602F0D1FD2A492046FFF781FE03A81A
:1027A00001F02AFE059803F051FC009502460B4605
:1027B0002046FFF77BFE23492046FFF771FE28469F
:1027C00001F0DCFF406A03F041FC009502460B4635
:1027D0002046FFF76BFE1C492046FFF761FE2846A6
:1027E00001F0CCFFC06A03F031FC009502462DE0F9
:1027F000B897FF1F2C7900003A7900004A79000051
:102800005A7900006E7900007F790000907900000D
:10281000A1790000AA790000B8790000C47900000D
:10282000D0790000D9790000E5790000EE79000048
:10283000FC790000087A0000147A00001D7A00007C
:10284000297A0000327A0000407A00000B462046C8
:10285000FFF72CFE3A492046FFF722FE284601F0FA
:102860008DFF006B03F0F2FB009502460B462046FD
:10287000FFF71CFE33492046FFF712FE032002F04B
:1028800007F901462046FFF70FFE204602F054FDEF
:102890002D492046FFF704FE284602F0F9F80146CC
:1028A0002046FFF701FE29492046FFF7F9FD0020E9
:1028B00001F040FE01462046FFF7F6FD2449204680
:1028C000FFF7EEFD012001F035FE01462046FFF73F
:1028D000EBFD20492046FFF7E3FD284601F02AFEE4
:1028E00001462046FFF7E0FD1B492046FFF7D8FDD3
:1028F000032001F01FFE01462046FFF7D5FD2046CC
:1029000002F01AFD15492046FFF7CAFD01F088FDC7
:102910000A2201460023204602F01CFD204602F058
:102920000BFD20460E4C02F007FD20460D49FFF737
:10293000AAFD204607B0BDE8304002F0FDBC00BF54
:102940004C7A0000587A0000617A00006F7A00002B
:10295000767A00007D7A0000847A00008B7A00008D
:102960006497FF1F9E7A000037B5084D084C2B680E
:102970000093009A2368D31AB3F5FA7F05D9FFF7BD
:10298000D7FD2B680193019B23603EBDA492FF1FDE
:102990001095FF1F044B82B01B680193019A034BF3
:1029A0001A6002B0704700BFA492FF1F1095FF1F6E
:1029B00038B5044608460D46FDF742FE2368024638
:1029C00029465B68204698470546204602F0B4FC3D
:1029D000281838BD08B501F0D9FEBDE8084001F05F
:1029E00033BEFFFF014B93F9000070471188FF1FB2
:1029F00008B5044B01221A7001F01FFEFFF782FD9B
:102A0000FCE700BF1495FF1F30B5002085B001F032
:102A1000B5FE044601A801F0EFFC019B0120E36133
:102A200001F0ACFE044601A801F0E6FC029B032085
:102A3000E36101F0A3FE044601A801F0E7FC019B5D
:102A40000420E36101F09AFE044601A801F0DEFCD7
:102A5000029B0220E36101F091FE044601A801F00F
:102A6000CBFC039BE3612D4B1C78012C2CD1032064
:102A700001F084FE0546002002F00AF803F026FF6C
:102A8000A861042001F07AFE0546204602F000F815
:102A900003F01CFFA861032001F0B4FE042001F044
:102AA000B1FE002001F06AFE0546032001F066FE3B
:102AB000436A2046AB6101F061FE0446042001F048
:102AC0005DFE436AA36113E0002001F057FE044657
:102AD000002001F0DDFF03F0F9FEA061012001F00C
:102AE0004DFE0446012001F0D3FF03F0EFFEA0618C
:102AF000022001F043FE0446032001F0C9FF03F069
:102B0000E5FEA061002001F07DFE012001F07AFECB
:102B1000022005B0BDE8304001F074BE1188FF1FEF
:102B200010B502208CB001F0B3FF044620B9032099
:102B300001F0AEFF28284DDC022001F0A9FF20B9EA
:102B4000032001F0A5FF283047DB274C09A801F03E
:102B500053FC0998216804F0A1F8244B48B11A8865
:102B6000013292B2B2F5FA7F1A8008D12048214989
:102B70002CE0188009A801F03FFC099B23606846FF
:102B800001F044FC00981C4904F0B0F8E0B903A837
:102B900001F03CFC0398194904F08AF8A0B906A892
:102BA00001F034FC0798144904F0A0F860B909A8B2
:102BB00001F02CFC0A981149012404F079F800B9BD
:102BC000002414F0FF0F0CD009480D49FFF7F0FE68
:102BD000FFF70EFF0B4B1C70AEE70A4B01221A7079
:102BE000B3E70CB010BD00BF1895FF1F1695FF1F6F
:102BF000B897FF1FAC7A000000003442000034C2D6
:102C0000B87A00001595FF1F2DE9F041022001F070
:102C10003FFF0546002001F0B1FD0446284603F0C1
:102C200055FE616A03F09CFD0446012001F0A6FDFB
:102C300003462046596A03F093FD0446022001F042
:102C40009DFD03462046596A03F08AFD074602208F
:102C500001F01EFF0546002001F090FD04462846C5
:102C600003F034FE616A03F07DFD0446012001F0AB
:102C700085FD03462046596A03F074FD0446022090
:102C800001F07CFD03462046596A03F069FD0646C3
:102C9000022001F0FDFE0546012001F06FFD044613
:102CA000284603F013FE616A03F05AFD0446002033
:102CB00001F064FD03462046596A03F053FD0446C3
:102CC000022001F05BFD03462046596A03F04AFDED
:102CD0000546022001F0DCFE8046012001F04EFD99
:102CE0000446404603F0F2FD616A03F03BFD0446F2
:102CF000002001F043FD03462046596A03F030FDF1
:102D00000446022001F03AFD03462046596A03F0CA
:102D100029FD0446384603F099F90022184B03F0C8
:102D200037F803F081FC01B2002001F05FFC30466F
:102D300003F08CF90022124B03F02AF803F074FC24
:102D400001B2012001F052FC284603F07FF9002275
:102D50000B4B03F01DF803F067FC01B2022001F0F9
:102D600045FC204603F072F90022054B03F010F8F1
:102D700003F05AFC01B20320BDE8F04101F036BC7B
:102D80000000E03F08B5022001F082FE40F22D4332
:102D90009842D4BF0020012008BDFFFF10B5FFF707
:102DA000BFFE0F4B1A781C460AB101F089FDFFF7F0
:102DB0002BFEFFF729FF0B4B1B78012B09D1FFF7E7
:102DC000E1FF30B1064B00221A70BDE8104001F05F
:102DD0002BBC01232370BDE8104001F02EBC00BFC6
:102DE0001088FF1F1595FF1F014B00221A707047B6
:102DF0001595FF1F024B1878431E584258417047E3
:102E00001595FF1F07B50021427B00910169012341
:102E100000F0ACFD0EBDFFFF70B5094C0D46C1B210
:102E20002046164600F0F0FA2946204600F050F8F9
:102E30002046314600F04CF82046FFF7E3FF70BD16
:102E40003095FF1F38B5074C0D46C1B2204600F043
:102E5000DBFA2046294600F03BF82046FFF7D2FF78
:102E600038BD00BF3095FF1F13B5074CC2B2012318
:102E70000020617B00930190206900F062FD2069D1
:102E800000F087FDC0B21CBD3095FF1F37B50B4C5D
:102E9000C2B200230120617B8DE809000223206972
:102EA00000F04FFD206900F074FD0546206900F038
:102EB00070FD40EA052080B23EBD00BF3095FF1F87
:102EC0000369D3F83801D3F83431C01A704770471A
:102ED0000369D3F84422B2F5817F09D8D3F844229C
:102EE0009818013280F83C11C3F844220120704741
:102EF0000123037100207047036930B5D3F84442C1
:102F0000B4F5817F1CD8D3F84442D3F84452C4F5B9
:102F1000817401345B19A24203F59E7502D9012325
:102F200003712246002302E0CC5CEC54013393424F
:102F3000FAD10369D3F844125118C3F8441202E0DD
:102F4000012303710022104630BDFFFF38B5094B45
:102F50000360036993F84822022A044608D1D3F893
:102F600060522DB1284601F0DFFF284602F0D2FA68
:102F7000204638BDD07A00000368988BC0F3C0109B
:102F80007047C3681A7802F00202D2B2002AF9D060
:102F900002221A707047FFFF002202710273074A73
:102FA000417310B502604FF47A74054A84604FF49F
:102FB000197404FB0121016110BD00BFD07A00002B
:102FC0001488FF1F70B5C3681B7803F02003DBB2C1
:102FD00004460E46002B6DD1836880211970C368AA
:102FE0000221197090F84932012B08BF80F848324D
:102FF0000AB980F84822531E012B01D9012070BD67
:1030000084F8482216B94FF0807103E0012E03D1F5
:103010004FF00071284B1960022AEFD1082002F00E
:1030200077FA0021054601F027FFC4F8605265B128
:103030002B79102B09D1284601F076FF284602F0A3
:1030400069FA012084F8480270BD2B681B489A8BEE
:10305000998B92B242F008029A83194B194A002EBA
:1030600008BF18462B7903F1100142F821004FEAFE
:1030700063124FEA820202F1604202F561424FF0B0
:10308000010003F01F0300FA03F313602B689A8B0F
:10309000998B92B242F002029A832B7903F180431A
:1030A00003F504334FF000021A7014BF97229622E2
:1030B0001A7070BD002070BD00E100E0ED3E000020
:1030C000F93E00000082FF1F03468348814210B58D
:1030D00017D159680D2A5FD8DFE802F022240728AB
:1030E000090B5052540D0F5A115C55223DE0192224
:1030F0003BE0132239E0062237E0052235E00120CB
:103100004BE0764881421FD159680C2A44D8DFE849
:1031100002F007090B0D0F111315173B193F410062
:103120002C2222E0242220E01E221EE04F221CE05E
:1031300015221AE00F2218E00E2216E00C2214E0ED
:103140000A2212E0042210E06548814229D1596820
:103150000B2A21D8DFE802F006080C0E1012141614
:10316000181A1C1E272200E05A220A70012015E0BE
:103170001C22FAE78522F8E71422F6E74522F4E755
:103180000D22F2E70B22F0E70922EEE70322ECE73B
:103190000222EAE70022E8E7002008709B69042287
:1031A00094E05048814224D15968092A1CD8DFE8AC
:1031B00002F005070B0D0F1113151719952200E0EA
:1031C00055220A70012011E08522FAE71522F8E75E
:1031D0004522F6E70C22F4E70A22F2E70522F0E79F
:1031E0000222EEE70022ECE7002008709B69032230
:1031F0006CE03D4881421FD15968072A17D8DFE8A3
:1032000002F004060A0C0E1012141F2200E08522A0
:103210000A7001200DE01422FAE74522F8E70B229C
:10322000F6E70522F4E70222F2E70022F0E70020A9
:1032300008709B69022249E02C4881420DD15968EF
:10324000052A23D8DFE802F00305071A1E201D22F5
:1032500015E0142213E0432211E0254881421AD1DF
:103260005968032A12D801A050F822F05332000006
:103270007D32000085320000893200000B220A7086
:10328000012005E00322FAE70022F8E70020087099
:103290009B6901221AE017485C6881420AD122B179
:1032A000012A4FF0000203D100E00B22227008E057
:1032B000227008E0104881424FF00000207007D1D2
:1032C0000AB9012000E000209B6900221A7010BD9D
:1032D0009B69187010BD00BF00879303007E5603E2
:1032E000006CDC020051250200366E010024F4005F
:1032F00000127A0000093D0080841E00F8B50446E3
:103300009DF81C609DF818000D4621B938490F68DA
:1033100047F0400705E0012904D135490F6847F01F
:1033200080070F60002184F84C1284F849226169FB
:1033300032B920230B7023681A70E3691A7014E005
:1033400000280CBF202228220A70216801D0834265
:1033500001D25A0000E042000A70E26920B18342C3
:1033600001D2400000E0580010709DF8203040F27B
:103370000362002B40F2646140F2032308BF4FF464
:10338000197308BF0A4665B9012E03D184F84A6251
:10339000184A15E0184A84F84A52136042F8043C6F
:1033A00010E0012D0ED1032E06D1144B84F84A6291
:1033B0001A6043F8042C05E0022284F84A22104ADD
:1033C000136053600F499DF824202046FFF77CFED0
:1033D0009DF8282020462946FFF7F4FD94F849225D
:1033E000A3680AB9802200E0C0221A70F8BD00BFAD
:1033F0003480044000A004400CA0044004D00440E9
:1034000028B00440006CDC020369490083F83C11D9
:1034100003690122C3F844220022027183F84C227E
:103420007047FFFF2DE9F0411E46D0F844320446B4
:103430000D461746002B00F0D980C36812221A707F
:103440008068037803F02003DBB20BB1B42309E0FA
:10345000E268137803F02003DBB2002BF9D184F883
:103460004932B023037094F84832013B012B00D954
:1034700012E0FDF7C7F85E4A5E4B002D14BF1146FF
:1034800019460978884207DC0F2807DD002D14BF94
:1034900015461D4610382870002100E0012194F8DF
:1034A00048520DB100293DD0FDF7C2FA01238046F4
:1034B00084F84C3284F84B72002515E0072384F819
:1034C0004C32A36880221A70E368102209E0DB07FF
:1034D00009D50DB9052300E0062384F84C32A36812
:1034E00080221A700CE00135D4F844329D4207D294
:1034F000002E41D0FDF79CFAC8EB0000B0423BD350
:10350000D4F844329D4201D2042300E0002384F821
:103510004C3294F84B32012BA36801D1802228E071
:10352000B02226E06B1E012B60D80120022D84F80A
:103530004C0284F84B72C4F8401214D1D4F84432CF
:10354000042B29D80FE013689B6833B91368002156
:103550000120187259729972D972136800221A7672
:103560005A769A76DA76A368F0221A70236994F86C
:103570003C211A70BDE8F0816219236992F83C2160
:1035800020461A70FFF7FDFCE3681B7803F0100279
:10359000D2B2002A9BD091E7D4F8602284F8560278
:1035A0001368D4F844521F68187104F23D161E6067
:1035B0005971D9711368187259729972D972136856
:1035C000023D6842D8602846DD8BD8831368DA8ACA
:1035D000D882D4F8602220691368B0F1804F1D6949
:1035E0001975186159759971B0D3ACE7BDE8F081D0
:1035F00019E400E018E400E02DE9F84315465A1EEE
:10360000B2F5817F044688469DF82070099E00F23D
:103610003D81C0F850320023C0F83431C0F8383151
:10362000C36812221A7083681A7802F02002D2B29C
:103630000AB1B42209E0C1680A7802F02002D2B2CD
:10364000002AF9D184F84922B0221A7094F848323D
:10365000013B012B00D913E0FCF7D4FF8C4A8D4BC2
:10366000B8F1000F14BF114619460978884207DCEB
:103670000F2807DDB8F1000F18BF13461038187077
:10368000002300E0012394F8482212B1002B00F03F
:103690008280FDF7CDF9022384F84C326D00236956
:1036A00084F84B7245F001051D7080462046FFF7F7
:1036B00068FCE3681B7803F01002D2B242B1072322
:1036C00084F84C32A36880221A70E368102206E066
:1036D000DA0707D5052384F84C32A36880221A70D4
:1036E000BDE8F883032384F84C32D4F85032012B20
:1036F000A36801D1A82200E0A0221A702369002546
:103700001B78A8274FF0B0093AE0FDF791F9C8EB14
:103710000000B04234BF00230123D4F83811D4F89C
:1037200050220231914200F0888023B194F8552252
:10373000002A00F08280D4F83811D4F850220131E8
:10374000914280F08880002B7AD094F85522002A8C
:1037500040F0818074E0042284F84C2201E084F877
:103760004C3294F84B22012A06D12022013A7FF4F0
:10377000FDAFA2688021117013B1012384F8553286
:10378000D4F83821D4F850329A427FD294F84C328F
:10379000032B7BD172E0511E012977D802218A4286
:1037A00084F84C1284F84B723DD1D4F85022042A8C
:1037B00039D9012284F85622D4F860222069116890
:1037C000B0F1804F0E680B7108604B71CB7102D362
:1037D00013689B6833B9136800210120187259726D
:1037E0009972D97212680023137353739373D3734E
:1037F000D4F86002D4F85022016804F130060F6951
:103800000E6101260E754B758B7101680E724B723D
:103810008B72CB720368013A51429961D98BDA837A
:103820000368D98ADA82A368F0221A7023696D00CE
:1038300045F001051D70BDE8F883A26817707AE7AE
:1038400022691078D4F83821A118013281F83000AB
:10385000C4F8382190E7A26884F8555282F80090A5
:1038600022691078D4F83821A118013281F830008B
:10387000C4F83821002B7FF46EAF70E72046FFF7C5
:1038800080FB002E7FF441AF334646E7BDE8F88366
:1038900019E400E018E400E0036993F84C32043BBB
:1038A000032B07D8DFE803F004020B040220704763
:1038B000042070470079003018BF012070470320B2
:1038C000704790F84C326BB190F84C32052B09D010
:1038D00090F84C32062B05D090F84C02C11F48429C
:1038E000484170470120704770B504460D46FDF70A
:1038F0009FF806462046FFF7E4FFD0B9002DF9D027
:10390000FDF796F8801BA842F4D312E094F84C32ED
:10391000022B12D094F84C32032B0ED08023013BA3
:103920007FF4FDAF94F84C02D0F1010038BF0020C5
:1039300070BD94F84C32012BE8D1042384F84C324A
:10394000ECE773B5079D04460BB900200DE09DF828
:10395000186001950096FFF74FFE20462946FFF7B5
:10396000C3FF0028F1D0D4F838017CBD70B5049CA9
:1039700006460D46084611461A462346FFF752FDF5
:1039800028462146FFF7B0FF3046BDE87040FFF7FC
:1039900083BFD0F83411D0F838219142034608D2C1
:1039A000D0F834218118013291F83000C3F8342165
:1039B00070474FF0FF3070470069FFF7EABFD0F85B
:1039C0003421D0F838319A4205D2D0F83431C018B9
:1039D00090F8300070474FF0FF3070470069FFF7F4
:1039E000EEBFFFFF38B5C16883680D781A780446CA
:1039F00002F02000C0B2002800F0268102F0100280
:103A0000D2B2002A00F09F8094F85622022A1ED1DA
:103A1000D4F86002FFF7B0FA002800F0D181E36823
:103A20001B781B0640F1C481CAE1E3681B781806C5
:103A300040F1E281CCE1072284F84C22A268802187
:103A40001170E26812211170C4F8403238BD94F848
:103A50004C22012A3DD115F010020DD00022072181
:103A600084F8562284F84C1280211970E3681221E0
:103A70001970C4F8402238BD15F0010509D084F84A
:103A80005622D4F8402202B935E0062284F84C22AE
:103A90008EE0D4F840220132C4F84022D4F8441217
:103AA0008A4202D384F84C5246E094F85622012A06
:103AB00040F09B81022284F85622F1221A70D4F839
:103AC00060321A79B64B1A70D4F860321A79B54B55
:103AD0006FE094F84C22022A2AD105F01001C9B2F5
:103AE00039B1072284F84C2280221A70E36812222E
:103AF00054E1E90701D50522C8E794F856120129D7
:103B000008D184F85622E1221A70D4F860321A796A
:103B1000A34B09E0032284F84C22D4F85022012A56
:103B200001D1E82200E0E0221A7023691B7833E11A
:103B300094F84C22042A3BD194F84B22012A00D15C
:103B400036E0B02235E094F85622022A33D1D4F878
:103B50006002FFF711FA002800F07181E3681B781A
:103B60001B0640F164816AE1E3681B78180640F1A6
:103B70007C816CE184F84C32A368B0221A70D4F8CE
:103B800050322269013BC4F83831D4F83831117809
:103B9000E2180133C4F8383194F84B3282F830100F
:103BA000012B40F0F9802023013B7FF4FDAFA36897
:103BB00080221A70F0E0D4F83811D4F85022023183
:103BC000914200F0698194F84C22042A04D194F8BF
:103BD0005522002A00F06081D4F83821D4F8503200
:103BE00001329A4280F05B8194F84C32042B40F011
:103BF0005F8194F85532002B40F0518158E184F8F0
:103C00004C32A368B0221A70D4F838312269117886
:103C1000E2180133C4F8383194F84B3282F830108E
:103C2000012B06D12023013B7FF4FDAFA368802246
:103C30001A7094F84C32042B40F0AE8094F8553250
:103C4000002B00F04081A7E005F01003DBB233B198
:103C500010230B7005F04003DBB203B99CE015F0B4
:103C6000400151D094F84C32092B04D1D4F8583289
:103C7000002B40F02C8115F004051ED0082384F899
:103C80004C320023C4F84432A368D0221A7023694E
:103C90001B785B0884F84D32D4F85C3203B1984746
:103CA000D4F844320BB984F83C31236994F83C21B0
:103CB0001A700123C4F840326EE094F84A2284F866
:103CC00054520AB9122002E0012A02D111203649C9
:103CD00003E0022A03D135491E20032203E0032A10
:103CE00003D132491F20FCF7E5FC092384F84C324C
:103CF0000023C4F83831A368C0221A7023691B78E6
:103D00005B0884F84D3247E012F010021DD015F028
:103D1000010512D1D4F84022D4F844329A4207D295
:103D2000D4F84032E218013392F83C51C4F84032E2
:103D300023691D70A368D0223BE7A368C0221A70D4
:103D400023691B7884F84C1226E084F8542294F8F6
:103D50004A220AB9122002E0012A02D11120124996
:103D600003E0022A03D111491E20032203E0032AA3
:103D700003D10E491F20FCF79DFC23691978D4F864
:103D80003831B3F5817F07D8D4F83831E2180133E0
:103D900082F83010C4F83831E36802221A7038BD56
:103DA0001B8000401D800040A13F0000953F0000A7
:103DB000D4F860321A79494B1A70A368F022F8E6F9
:103DC000D4F86002FFF7D8F800287FF42EAE13E095
:103DD000D4F860321A79424B1A70002384F85632B4
:103DE000D4F84432013BC4F84032D4F8402223696D
:103DF000A21892F83C21DCE6D4F86032394A1B79EB
:103E00001268012101FA03F11142C5D0334A13703F
:103E1000D4F860321A79344B05F010051A70EDB2FF
:103E2000002384F85632002D7FF405AEB4E7D4F8B1
:103E300060321A79294B1A70A368E822B9E6D4F8DF
:103E40006002FFF799F800287FF48EAE0DE0D4F8F9
:103E500060321A79224B1A70002384F8563294F893
:103E60004C22042A7FF486AE86E6D4F860321D4ADE
:103E70001B791268012101FA03F111428CD0174A13
:103E80001370D4F860321A79174B1A70002384F833
:103E9000563284F84C328AE6E8221A709CE694F88E
:103EA0004C220023042A84F855327FF4A8AEA8E6F9
:103EB000D4F8383122691178E218013382F83010D1
:103EC000C4F83831B5E6012384F8553264E700229E
:103ED000C4F83421D4F838019847CCE61F8000405C
:103EE0001C8000402C8000401E80004001480121C1
:103EF000FFF778BD788AFF1F01480021FFF772BDE8
:103F00001488FF1F10B5C3681B7813F02003044604
:103F10001ED180F84C3290F84A320BB912200AE0D8
:103F2000012B01D1112006E0022B01D11E2002E05D
:103F3000032B02D11F20FCF7E7FBD4F85832002BEB
:103F400027D00022C4F83421D4F83801984710BD96
:103F500090F854320133DBB2012B80F8543213D87D
:103F600090F84932012B0FD110BD122008E011202A
:103F7000012B05D01E20022B02D0032B09D11F20BC
:103F8000BDE81040FCF7C0BB94F84A32002BEED1DC
:103F9000EBE710BD01480121FFF7B4BF788AFF1F8E
:103FA00001480021FFF7AEBF1488FF1F70B50C4E0B
:103FB0000C4D0D4C00213046FEF7EEFF30460B4E07
:103FC0002246294602F09CFE01213046FEF7E4FF1E
:103FD000304629462246BDE8704002F091BE00BF3F
:103FE0003095FF1F4D2F00006087FF1F1C95FF1F9E
:103FF00010B50A4B86B0002201200324597B0092A1
:10400000019202900394049018691346FFF776F921
:1040100006B0BDE8104000F073BB00BF3095FF1F35
:1040200038B51C4D1C4C284600F047FBB5F9000084
:1040300002F04CFC0146206802F094FB2060B5F9C8
:10404000020002F043FC0146606802F08BFB6060F6
:10405000B5F9040002F03AFC0146A06802F082FBC8
:104060000E4BA0601A880E4C013220461A8000F0D8
:1040700035FBB4F900100B48FEF778F9B4F90210DB
:104080000948FEF773F90948B4F90410BDE838404F
:10409000FEF76CB9C495FF1F8C95FF1FA895FF1FF5
:1040A000D895FF1FE095FF1F4495FF1F7495FF1FD4
:1040B0002DE9F74FC04CDFF83883C04EFCF7B8FC51
:1040C0002368BF4AC01A1060FCF7B2FC2060B8F940
:1040D0000000BC4C02F0FAFB05462946606802F07D
:1040E000FDFC01F0B3FFA0A3D3E9002301F050FED3
:1040F00002F0E2FA29468246A06802F0EFFC01F0E5
:10410000A5FF9BA3D3E9002301F040FE02F0D4FAFF
:10411000294681462068AC4D02F0E0FC01F096FF94
:1041200095A3D3E9002301F033FE02F0C5FA01F0B4
:104130008DFF93A3D3E9002302F006F902F0BCFA45
:1041400007463060504601F081FF8DA3D3E900237C
:1041500002F0FAF802F0B0FA7060484601F076FF1B
:1041600087A3D3E9002302F0EFF802F0A5FA0023B9
:1041700023606360A3600023A8F80030B060FCF700
:1041800057FC2B68914CC01A02F09CFB0146384644
:1041900002F0F0FB8E4902F0A1FC0146206802F01B
:1041A000E1FA77682060FCF743FC2B68C01A02F044
:1041B00089FB0146384602F0DDFB8549854F02F058
:1041C0008DFC0146606802F0CDFA6060FCF730FCBF
:1041D00028608148814CFEF751F901F025FF6AA360
:1041E000D3E9002301F0D4FD02F066FA4FF06451E8
:1041F00002F0C0FB38607A48FEF740F901F014FF86
:1042000063A3D3E9002301F0C3FD02F055FA4FF098
:10421000645102F0AFFB78607248FEF72FF901F0AD
:1042200003FF5DA3D3E9002301F0B2FD02F044FADD
:104230004FF0645102F09EFBB860FCF7F9FB236875
:10424000C01A02F03FFB624902F048FC8046FCF7CE
:10425000EFFBD7F804A02060504601F0F7FED7F836
:104260000890044648460D4601F0F0FE02460B4613
:104270002046294601F08EF949A3D3E9002301F035
:1042800039FF02F019FA584C83462060386800F173
:10429000004001F0DBFECDE900015146504602F03E
:1042A00069FB49460746484602F064FB014638462A
:1042B00002F058FA01F0CAFE01F06EF902460B4610
:1042C000DDE9000101F066F935A3D3E9002301F02F
:1042D00011FF02F0F1F9454F6060814631684046B8
:1042E00002F048FB396802F03DFA01F0AFFE2EA360
:1042F000D3E9002301F0FEFE044658460D4601F0C6
:10430000A5FE2BA3D3E9002301F0F4FE02460B46E1
:104310002046294601F03CFD02F0CEF97168386074
:10432000404602F027FB796802F01CFA01F08EFE8D
:104330001DA3D3E9002301F0DDFE044648460D46E7
:1043400001F084FE1AA3D3E9002301F0D3FE024654
:104350000B462046294601F01BFD02F0ADF97860BE
:1043600048E000BFAFF3008048E17A14AE674740F1
:104370003D0AD7A3701D4B405C8FC2F5283C5140CD
:1043800066666666666640406666666666663E4067
:10439000B81E85EB51E856407B14AE47E17671407C
:1043A000F8C1631ADCA54C40022B8716D9CEEF3F2B
:1043B000007F6ABC7493783FAC95FF1FB095FF1FD8
:1043C000C095FF1F8C95FF1FBC95FF1FCC95FF1F4D
:1043D000002474496895FF1FE095FF1F9895FF1F03
:1043E0004495FF1F7495FF1F5C95FF1F9C95FF1F51
:1043F000A895FF1FBDE8FE8F034A034607CA83E85E
:1044000007001846704700BFB095FF1F034A0346D8
:1044100007CA83E807001846704700BF9C95FF1F36
:10442000014B1868704700BFC095FF1F08B5FCF727
:10443000FFFA0D4B1860FCF7FBFA0C4B0B211860D0
:1044400000220B48FDF768FF0B2100220948FDF709
:1044500063FF0B2100220848FDF75EFFFCF7E8FA36
:10446000064B186008BD00BFBC95FF1F9895FF1F45
:10447000E095FF1F4495FF1F7495FF1FAC95FF1F2C
:10448000014A024B1A6070470400FA050CED00E087
:1044900008B5FCF701FB40F28360FCF77BFDFFF7FA
:1044A000A7FD00F0FBFAFEF795FAFEF704F80020EE
:1044B0000146FCF7A1FA184B18495B681A6842F0EC
:1044C00002021A601A6822F001021A600020032218
:1044D000FCF7F0F8002000F027FBD0B1FFF7A0FDBB
:1044E000142000F021FB18B100F034FA00F07CFC3D
:1044F000022000F019FB18B1FFF7DAFDFEF74EFCC1
:104500004FF4FA7000F010FB08B1FDF7E7FF00F080
:1045100031FBFEF729FADDE7C47700008144000093
:10452000034B4FF416721A805A809A80DA807047D3
:10453000F895FF1F014B33F910007047F895FF1FE6
:10454000194B19885888884234BF02460A46884267
:1045500038BF084699888A4228BF0A46884238BF31
:104560000846D9888A4228BF0A4688422CBF03469B
:104570000B4640F22D418A4203D8C2F585620632CD
:1045800008E040F24472934203D9C3F5E862043272
:1045900000E00022054B03F108015888801823F839
:1045A000020F8B42F9D17047F895FF1FF695FF1F58
:1045B000F8B50B4D0B4F002441F28836635BB342D4
:1045C0000AD93B6808495B6806480F2298470548A6
:1045D00000F0B2FEFEF70CFA0234082CEED1F8BD62
:1045E000F895FF1FB897FF1FE87A0000014B23F8EA
:1045F00010107047F895FF1F084A094910880323D7
:10460000584308605088584388609088D28858433F
:104610005343044A41F8280C13607047F895FF1F74
:10462000388003401880034008B5FFF789FFFFF783
:10463000BFFFBDE80840FFF7DFBF08B5FFF770FF19
:10464000BDE80840FFF7D8BF08B5FFF769FF0D4B7D
:104650000C221A6002F5EA529A60FFF7EEFF0A4B4D
:104660001A6842F480621A605A6842F480625A60A2
:10467000064B1A6842F480621A605A6842F48062FB
:104680005A6008BD0080034014C0044004B00440D8
:1046900008B50A46C1B26820FEF7BEFB0120BDE89E
:1046A0000840FCF7E3B908B5C1B26820FEF7CAFBC1
:1046B0006820BDE80840FEF7E9BB70B5044643201A
:1046C000FFF7F1FF06464520FFF7EDFF05464720BF
:1046D000FFF7E9FF26806580A08070BD70B50446B5
:1046E0003B20FFF7E0FF06463D20FFF7DCFF0546D5
:1046F0003F20FFF7D8FF26806580A08070BDFFFFB8
:1047000008B580216B20FFF7C3FF6420FCF7AEF9EA
:104710006B200321FFF7BCFF6C200021FFF7B8FFDF
:1047200019200021FFF7B4FF1A200321FFF7B0FF83
:104730001B201021FFF7ACFF1C200821FFF7A8FF6A
:1047400068207521FEF77EFB6820FEF78DFB682848
:1047500004D107490748FEF72BF908BD064905486B
:10476000FEF726F94FF47A70FCF780F9F6E700BF00
:10477000337B0000B897FF1F497B0000024B3822B3
:1047800002FB0030704700BF0096FF1F194B1A480C
:104790001A4970B54FF081445C67194C18600022CB
:1047A00058609863D8634FF08040C3F8AC40C3F8BA
:1047B000E4409A60D9601A64596418679A67D967A7
:1047C000C3F8A800C3F8B020C3F8B410C3F8E000E1
:1047D000C3F8E820C3F8EC101C4603F58C761546A8
:1047E0002562E561FCF724F9383444F8240CB4421E
:1047F000F6D170BD0096FF1F000010400000A041E0
:104800003333F33F2DE9F74FDFF8B0904FF038081E
:1048100008FB00F809EB0804FCF70AF96369C01A01
:1048200002F050F8244902F059F98246FCF700F9E9
:10483000E66960613146A06901F092FF61688346D4
:1048400002F098F8514602F095F8216A01F08AFFCB
:10485000E76807F1004319460193054602F028FA7C
:10486000019B30B92846394602F040FA10B13D4666
:1048700000E01D46A16A2562304601F071FF5146F5
:1048800002F02CF959F808100746584602F072F861
:10489000A168E06280462563384602F06BF829463D
:1048A00007466063A662404601F05CFF394601F0AE
:1048B00057FF6062BDE8FE8F002474490096FF1F19
:1048C000054B00221A629A65C3F89020C3F8C820ED
:1048D000C3F80021704700BF0096FF1F37B504469C
:1048E000C8B2FCF77DF801280A4D04D1FCF7A0F806
:1048F00045F8240007E0FCF79BF855F82430064AF9
:10490000C01A22F81400054B1B680193019A044B4E
:104910001A603EBD2897FF1FE88CFF1FA492FF1F5F
:104920002497FF1F05200221FFF7D8BF0420032191
:10493000FFF7D4BF03200421FFF7D0BF02200521D9
:10494000FFF7CCBF01200621FFF7C8BF00200721D9
:10495000FFF7C4BF2DE9FF4172B64349434A0B68D4
:1049600013604B6853608B68936062B6404B1B6862
:104970000393404B03991B68CB1AB3F57A7F4FF032
:10498000000409D9FEF730FA3B4B1C805C809C8008
:10499000DC801C815C8165E0DFF8EC80374E2546C9
:1049A0001746E05B022D03B21FD140F22D42934225
:1049B0004EDD013293424CD06532934206DD40F227
:1049C00014729342A8BF1346184601E040F2944087
:1049D00040F2DC52009240F2944102F59C7240F2A7
:1049E0002E4300B200F08AFD30E034F808100AB21D
:1049F000934204DB305F8342B8BF184600E00846AC
:104A0000DFF888E01E4B34F90EE0325FE35ECDF84C
:104A100000E000B209B200F071FD032D80B205D1B3
:104A200003B213F1640F08BF002003E0012D01D988
:104A3000032D0ED103B2012B04D0B3F1FF3F08BF09
:104A4000002000E00020032D03D1404280B200E0AE
:104A500000200C4BE35AC018074B013518530234A1
:104A6000062D9ED1BDE8FF81E88CFF1FDC8CFF1F67
:104A7000A492FF1F2497FF1F1897FF1F8C7B000035
:104A8000687B0000987B0000807B0000747B000046
:104A9000014B33F9100070471897FF1F08B5072026
:104AA0000021FBF7A9FF06200021FBF7A5FF052049
:104AB0000021FBF7A1FF04200021FBF79DFF03204D
:104AC0000021FBF799FF02200021FBF795FF07204B
:104AD00004220F49FBF7EEFD062004220D49FBF7E7
:104AE000E9FD052004220C49FBF7E4FD0420024601
:104AF0000A49FBF7DFFD032009490422FBF7DAFD31
:104B0000084902200422BDE80840FBF7D3BD00BFDE
:104B10004D490000454900003D490000354900006D
:104B20002D4900002549000038B5044690B90F4DC5
:104B3000FBF77EFF2B68C01AB0F57A7F08D9FBF728
:104B400077FF0B4B28601A8801321A80012038BD8C
:104B5000204638BD064BB3F9003093FBF0F004FB60
:104B60001034D4F1010038BF002038BD4497FF1F36
:104B70004097FF1F044BB3F90020B2F57A7F01D1B3
:104B800000221A80704700BF4097FF1F08B5FBF74F
:104B90004FFF014B186008BD4497FF1FFFFFFFFF49
:104BA0002DE9F0478246FDF71DFF012811D10320B2
:104BB000FFF7E4FD006801F049FA804603208946CA
:104BC000FFF7DCFD406801F041FA06460F4603207E
:104BD00010E00020FFF7D2FD006801F037FA8046B0
:104BE00000208946FFF7CAFD406801F02FFA06460B
:104BF0000F460020FFF7C2FD806801F027FABAF1E6
:104C0000610F04460D4610D14046494672A3D3E9D0
:104C1000002301F0EBFC002868D1404649466EA312
:104C2000D3E9002301F0B2F837E0BAF1730F10D1E5
:104C30003046394668A3D3E9002301F0D7FC0028A9
:104C400059D13046394664A3D3E9002301F09EF8D8
:104C500037E0BAF1640F0ED15FA3D3E9002301F06E
:104C6000C5FC00284AD1204629465BA3D3E900238E
:104C700001F08CF837E0BAF1710F11D14046494686
:104C80000022002301F09EFC00283AD1404649460C
:104C900051A3D3E9002301F07BF8804689463CE02C
:104CA000BAF1770F10D1304639460022002301F0C7
:104CB00089FC58BB3046394647A3D3E9002301F0AD
:104CC00067F806460F4628E0BAF1650F25D10022A5
:104CD000002301F077FCE8B9204629463EA3D3E93A
:104CE000002301F055F804460D4616E04FF0000889
:104CF0004FF0000911E0002600270EE000240025F7
:104D00000BE00FF2DC09D9E9008906E034A7D7E906
:104D1000006702E032A5D5E90045FDF763FE0128F2
:104D20002AD10320FFF72AFD49468246404601F07A
:104D3000C3FC8046CAF800000320FFF71FFD394678
:104D40008146304601F0B8FC0646C9F8040003204D
:104D5000FFF714FD29460746204601F0ADFCB86078
:104D600004460420FFF70AFDC0F800800420FFF786
:104D700005FD4660042029E00020FFF7FFFC4946BE
:104D80008246404601F098FC8046CAF800000020A8
:104D9000FFF7F4FC39468146304601F08DFC0646AB
:104DA000C9F804000020FFF7E9FC29460746204621
:104DB00001F082FCB86004460120FFF7DFFCC0F878
:104DC00000800120FFF7DAFC46600120FFF7D6FCE7
:104DD0008460BDE8F08700BF9A9999999999A93F95
:104DE0007B14AE47E17A843F08B5FDF7C7F9002888
:104DF00006DDFDF77DF9C0B2BDE80840FFF7D0BE83
:104E000008BDFFFFF8B5164B164D1A6842F08072C8
:104E10001A60154B1A6842F001021A60134B2E6893
:104E20001C680FE0237A63B121682F680B68204665
:104E300098472A68E388D21B12099A42A28088BF49
:104E4000E2806469002CEDD1064B094A1B689B1B6C
:104E50001B091380074A11888B4288BF1380F8BD55
:104E6000FCED00E0041000E0001000E04897FF1F98
:104E70004E97FF1F4C97FF1F30B572B609B90268F5
:104E800022B9264A00231188144611E003790F2B1A
:104E9000F7D82249098841FA03F1C907F1D503F18E
:104EA000007303F59063B2EB431FEAD162B630BDE5
:104EB00041FA03F212F0010227D1012505FA03F5A8
:104EC0002943218062B6164903710C6844F002043C
:104ED0000C6051F8044C44F0020441F8044C1149B0
:104EE00082240C608B768B770B76CB7703F1007383
:104EF00003F590635B0103601A605A609A60DA60A0
:104F00001A615A619A61DA6130BD0133102BCFD139
:104F100062B600220260037130BD00BF5097FF1FD0
:104F2000408004400080004003790F2B10D8094ACC
:104F3000137072B6084B0279012101FA02F2198846
:104F400021EA02021A8062B6102303710023036073
:104F5000704700BF1A8000405097FF1F08B50368D4
:104F6000C9B21B68984708BD08B50368C9B21B6879
:104F7000984708BD08B50368C9B21B68984708BDC3
:104F800008B50368C9B21B68984708BD084608B54C
:104F9000FBF778FE012008BD084608B5FBF772FE56
:104FA000012008BD38B508460D46FBF749FB04460D
:104FB00021462846FBF7B0FE204638BD10B508460E
:104FC00014461146FBF7A8FE204610BDFBF70CBFA8
:104FD000FBF756BFFBF7FCBEFBF724BFFBF73ABF5E
:104FE000FBF712BF0846FBF733BEFBF705BE4808C8
:104FF00000F1376000F5D830B0FBF1F0FBF78CBD65
:10500000480800F1376010B500F5D830B0FBF1F07A
:105010001446FBF781FD2046BDE81040FBF7C2BDFA
:105020007047FFFF044B00221A711A73034A4FF4B2
:105030007A7199601A6070475497FF1FB07B000027
:1050400008B50368C9B21B68984708BD08B503686E
:10505000C9B21B68984708BD08B50368C9B21B6888
:10506000984708BD08B50368C9B21B68984708BDD2
:10507000084608B5FCF744F8012008BD084608B505
:10508000FCF73EF8012008BD38B508460D46FBF791
:10509000D7FA044621462846FCF77CF8204638BD5E
:1050A00010B5084614461146FCF774F8204610BDAA
:1050B000FCF7D8B8FCF722B9FCF7C8B8FCF7F0B891
:1050C000FCF706B9FCF7DEB80846FBF7FFBFFBF7B5
:1050D000D1BF480800F1376000F5D830B0FBF1F0DF
:1050E000FBF758BF480800F1376010B500F5D8301D
:1050F000B0FBF1F01446FBF74DFF2046BDE8104031
:10510000FBF78EBF7047FFFF044B00221A711A7322
:10511000034A4FF47A7199601A6070476497FF1FD1
:10512000007C000008B50368C9B21B68984708BD39
:1051300008B50368C9B21B68984708BD08B503687D
:10514000C9B21B68984708BD08B50368C9B21B6897
:10515000984708BD084608B5FCF70CFA012008BDC1
:10516000084608B5FCF706FA012008BD38B5084620
:105170000D46FBF765FA044621462846FCF744FA3B
:10518000204638BD10B5084614461146FCF73CFAD7
:10519000204610BDFCF750BAFCF79ABAFCF740BAAB
:1051A000FCF768BAFCF77EBAFCF756BA0846FCF77B
:1051B000C7B9FCF799B9480800F1B76000F5584045
:1051C000B0FBF1F0FCF724B9480800F1B76010B566
:1051D00000F55840B0FBF1F01446FCF719F92046F1
:1051E000BDE81040FCF756B97047FFFF044B0022A2
:1051F0001A711A73034A4FF47A7199601A607047F2
:105200007497FF1F507C00002DE9F04100240746F1
:105210000D4626463B190A2219792846002300F03C
:1052200099F82B6880462E211B6828469847013440
:105230004044032C0644EDD12846F9790A22002384
:1052400000F088F88019BDE8F081FFFF044B054AA3
:105250001A6000221A715A719A71DA71704700BF90
:105260008497FF1FA07C000008B5034B01221A6041
:10527000024B1B68984708BD0C7103409497FF1FB1
:1052800008B5034B01221A60024B5B68984708BDC2
:105290001C7103409497FF1F08B5034B01221A604D
:1052A000024B9B68984708BD2C7103409497FF1FE1
:1052B00008B5034B01221A60024BDB68984708BD12
:1052C0003C7103409497FF1F054B01221A60054B68
:1052D0001A6822F400021A60034B00221A70704709
:1052E000007003403C8004409097FF1F037B012225
:1052F000591103F01F0302FA03F3084A42F8213060
:105300008268002313604178054A5354D15C21B967
:105310000133042BFAD1FFF7D7BF704780E100E0DB
:105320008C97FF1F037810B504460BB1FFF7DEFF23
:105330000023237010BDFFFF07B5054B1B88ADF898
:105340000430036801A95B68022298470EBD00BFC4
:10535000A87C0000F0B505468BB022B90368C9B23D
:105360001B6898472CE0012A08BF0A2221B9302285
:105370008DF82520212413E02124B1FBF2F002FB5B
:105380001011C9B2092901D8303100E037310AAF14
:105390003E1906F8241C014610B1013CE4B2ECE7CA
:1053A00033B1013C0AAAE4B213192D2203F8242CCC
:1053B0002B6801AF5B6828463919C4F1220298476F
:1053C0000BB0F0BD002902DA49422D2300E0002392
:1053D0000A22FFF7BFBFFFFF2DE9F34707469146BB
:1053E0009A4610461946002200239DF8284001F0F5
:1053F000F3F820B10AF1004A4FF0010800E08046BE
:1054000000260022304B0AE0104619462CA3D3E9AF
:10541000002300F06FFE013602460B46F6B2A642AC
:10542000F2D14846514600F0B3FC0D46044601F067
:1054300023F981464346384649460A22FFF78AFF48
:105440008046002E37D0484600F0DEFD072E28BFEC
:1054500007260B4602462946204600F097FC0136F7
:105460002E238DF80030F6B24FF001091BE0002228
:10547000164B00F03FFE0D46044601F0FDF802AA6F
:1054800002EB0903C0B200F1300203F8082C00F06F
:10549000CBFD09F1010902460B46204629465FFA79
:1054A00089F900F073FCB145E1D13B6838465B688F
:1054B00069464A4698474046BDE8FC87AFF30080FE
:1054C0009A9999999999B93F0000E03F00002440CA
:1054D00010B50446FFF726FF204610BD04480549D5
:1054E000054A002303708023437301F009BC00BF09
:1054F000A497FF1FD15400006087FF1F10B5029CC6
:10550000401AE41A4443521A94FBF2F0C01810BD3A
:1055100001F072BC01F078BC08461146FCF73CBEB5
:105520000846FCF7A1BEFCF7A9BEFCF709BEFCF7D4
:10553000DFBDFCF723BE7047044B00221A711A73BB
:10554000034A4FF47A7199601A607047B897FF1F49
:10555000B87C000008B50E4B1A78C2B901221A7047
:10556000FCF70CFE08B1FFF7E6FFFBF74DFC08B1B6
:10557000FFF756FDFBF786FE08B1FFF7C3FDFCF70A
:105580006BF808B1FFF730FE014B00221A7008BD1E
:10559000C897FF1F00F058B82DE9F0478AB00446BD
:1055A0000D4600F061F948F6F44AC1F6FF7A9AF91F
:1055B0000030013306460F460FD02046294600F042
:1055C000B7FB50B14FF000084FF0000920462946C4
:1055D00042464B4601F000F820B9304639460AB041
:1055E000BDE8F0879AF8006047F6D043C0F20003A8
:1055F0000122CDE904458DE80C000023CDE90245E8
:10560000089356B9CDE90689684600F0B9FB70B138
:10561000089B8BB9DDE90667DFE74046494642460D
:105620004B4600F091FE022ECDE90601ECD101F0CF
:10563000B1FB21230360EBE701F0ACFB089B0360A7
:10564000E8E700BFFFFFFFFF2DE9F04784B0002629
:105650000446CDE90023C7F6F0769DE880100D469C
:10566000CDE902230246C7F100092CF0004849EABF
:1056700007090B4648EAD979B1454FD8C0F1000A6D
:1056800021F000494AEA000A49EADA7AB24545D8E7
:105690000CF1404CDDF804A00CF5801C5CEA070C12
:1056A0005CD04FEAAA7659EA020206F0020646EA00
:1056B000D17640D058EA07074AD00022C7F6F072E8
:1056C00090455CD00022C7F6F072914540D0C8EBFF
:1056D00009084FEA2858B8F13C0F4CDC18F13C0F90
:1056E000ACBF4FF000084FF0010818EADA7873D029
:1056F00000200021012E6BD0022E5AD004460D4608
:10570000A6B147A3D3E9002300F040FB46A3D3E9A9
:10571000002300F03BFB04460D4607E020462946E7
:10572000DDE9022300F034FB04460D4620462946FD
:1057300004B0BDE8F087032EBCD801A252F826F0D1
:105740002D5700002D5700006F57000067570000CD
:10575000002B2ADB36A5D5E90045E7E704B0BDE814
:10576000F04700F049B934A5D5E90045DEE72EA59C
:10577000D5E90045DAE72EA1D1E90001BAE7C14534
:1057800035D0032E9ED801A252F826F0A55700006E
:105790009D5700006F5700006757000000244FF02E
:1057A0000045C3E700240025C0E725A5D5E900454D
:1057B000BCE71BA3D3E9002300F0E8FA02460B463E
:1057C00019A1D1E9000100F0E1FA04460D46ADE768
:1057D000044601F10045A9E7DDE9022320462946F8
:1057E00000F0B2FD00F0A0FA00F006F982E7032E07
:1057F000AED8DFE806F00E0A060213A5D5E900458B
:1058000094E713A5D5E9004590E713A5D5E9004530
:105810008CE713A5D5E9004588E700BFAFF300800A
:10582000075C143326A6A13C182D4454FB210940E3
:10583000182D4454FB21F93F182D4454FB2109C075
:10584000182D4454FB21F9BFD221337F7CD902C0EB
:10585000D221337F7CD90240182D4454FB21E9BF6B
:10586000182D4454FB21E93F2DE9F8430027B946A0
:10587000C7F6F077C7F6F0790F404F4504460D465E
:1058800002460B460E46804600F09980002977DDDF
:105890000F1500F0828026F07F43A7F2FF3723F434
:1058A0007003FA0743F4801344BF4FEAD8724FEAFB
:1058B00048084FF0000C48BF02EB430360464FEA34
:1058C000D8727F1002EB430316244FEA48024FF4CC
:1058D00000114518D60F9D424FEA4202DEBFC5EBCC
:1058E000030368188C444908013C06EB4303F0D1DC
:1058F0002026A0464FF000410EE081461B1A95423B
:1059000088BF013B521B64184846D50F4908520016
:10591000013E05EB430315D0984201EB080503DB7C
:10592000954298BF8342F0D105F0004905EB01088C
:10593000B9F1004FE1D1B8F1000FA8BF00F10109A2
:10594000DCDADAE7134312D166084FEA6C031CF085
:10595000010F03F17F5318BF46F0004603F5001313
:10596000344603EB075520462946BDE8F883631CFF
:1059700008BF0CF1010CE8D004F001031C19E3E7A7
:1059800021F000460643EED041BB0F464FEAD82631
:10599000153F4FEA4858002EF8D016F4801319D15D
:1059A00076000133F102FBD5C3F10101C3F12002FE
:1059B00028FA02F27F18164308FA03F86BE700F0A2
:1059C00099FB02460B462046294600F0E1F90446C1
:1059D0000D46C8E7202201210023E9E702460B46D5
:1059E00000F0D4F902460B4600F0AEFC04460D462A
:1059F000B9E700BFFFFFFFFF2DE9F84F89464FF6DB
:105A0000FF7129F00044C4F20F4180468C424A469F
:105A1000CA461FDD0023C7F6F0739C4200F3C08026
:105A200014BF0023012300280CBF002103F0010153
:105A3000002940F0B58042F2FB1942F618584B4657
:105A4000CBF6F979C3F6F973C5F24448002AC8BF0A
:105A50009946ADE04FF6FF73C3F6DB739C4200F34B
:105A6000BA804FF6FF73C3F61F639C4240F3A480D5
:105A70004FF0FF3B42464B464046494600F03AFB5A
:105A800002460B4606460F4600F034FB8EA3D3E9D0
:105A9000002304460D4600F02DFB8DA3D3E900231F
:105AA00000F076F922462B4600F024FB8AA3D3E9C6
:105AB000002300F06DF922462B4600F01BFB88A363
:105AC000D3E9002300F064F922462B4600F012FBD4
:105AD00085A3D3E9002300F05BF922462B4600F0B2
